{
  "contractName": "MetaCoin",
  "abi": [
    {
      "inputs": [],
      "payable": false,
      "stateMutability": "nonpayable",
      "type": "constructor",
      "signature": "constructor"
    },
    {
      "constant": false,
      "inputs": [
        {
          "name": "_role",
          "type": "uint256"
        }
      ],
      "name": "requestAccess",
      "outputs": [],
      "payable": false,
      "stateMutability": "nonpayable",
      "type": "function",
      "signature": "0x7fdc2cdc"
    },
    {
      "constant": false,
      "inputs": [
        {
          "name": "_index",
          "type": "uint256"
        }
      ],
      "name": "approveRequest",
      "outputs": [],
      "payable": false,
      "stateMutability": "nonpayable",
      "type": "function",
      "signature": "0xd7d1bbdb"
    },
    {
      "constant": true,
      "inputs": [
        {
          "name": "_index",
          "type": "uint256"
        }
      ],
      "name": "getRequest",
      "outputs": [
        {
          "name": "",
          "type": "uint256"
        },
        {
          "name": "",
          "type": "address"
        },
        {
          "name": "",
          "type": "uint256"
        }
      ],
      "payable": false,
      "stateMutability": "view",
      "type": "function",
      "signature": "0xc58343ef"
    },
    {
      "constant": true,
      "inputs": [],
      "name": "getRequestsLength",
      "outputs": [
        {
          "name": "",
          "type": "uint256"
        }
      ],
      "payable": false,
      "stateMutability": "view",
      "type": "function",
      "signature": "0xc8cf4722"
    },
    {
      "constant": false,
      "inputs": [
        {
          "name": "_newOwner",
          "type": "address"
        }
      ],
      "name": "setOwner",
      "outputs": [],
      "payable": false,
      "stateMutability": "nonpayable",
      "type": "function",
      "signature": "0x13af4035"
    },
    {
      "constant": false,
      "inputs": [
        {
          "name": "_validatorAddress",
          "type": "address"
        }
      ],
      "name": "setValidator",
      "outputs": [
        {
          "name": "sufficient",
          "type": "bool"
        }
      ],
      "payable": false,
      "stateMutability": "nonpayable",
      "type": "function",
      "signature": "0x1327d3d8"
    },
    {
      "constant": false,
      "inputs": [
        {
          "name": "_transactorAddress",
          "type": "address"
        }
      ],
      "name": "setTransactor",
      "outputs": [],
      "payable": false,
      "stateMutability": "nonpayable",
      "type": "function",
      "signature": "0x623cb3e3"
    },
    {
      "constant": true,
      "inputs": [
        {
          "name": "_adr",
          "type": "address"
        }
      ],
      "name": "isValidator",
      "outputs": [
        {
          "name": "",
          "type": "bool"
        }
      ],
      "payable": false,
      "stateMutability": "view",
      "type": "function",
      "signature": "0xfacd743b"
    },
    {
      "constant": true,
      "inputs": [
        {
          "name": "_adr",
          "type": "address"
        }
      ],
      "name": "isTransactor",
      "outputs": [
        {
          "name": "",
          "type": "bool"
        }
      ],
      "payable": false,
      "stateMutability": "view",
      "type": "function",
      "signature": "0xc1a94ecd"
    },
    {
      "constant": true,
      "inputs": [
        {
          "name": "_adr",
          "type": "address"
        }
      ],
      "name": "isCeo",
      "outputs": [
        {
          "name": "",
          "type": "bool"
        }
      ],
      "payable": false,
      "stateMutability": "view",
      "type": "function",
      "signature": "0x1165e6ab"
    },
    {
      "constant": false,
      "inputs": [
        {
          "name": "owner_id",
          "type": "address"
        },
        {
          "name": "ownerName",
          "type": "string"
        },
        {
          "name": "locality_id",
          "type": "uint256"
        },
        {
          "name": "current_status",
          "type": "string"
        },
        {
          "name": "_address",
          "type": "string"
        },
        {
          "name": "area",
          "type": "uint256"
        }
      ],
      "name": "addLandTransaction",
      "outputs": [],
      "payable": false,
      "stateMutability": "nonpayable",
      "type": "function",
      "signature": "0xc4abf19f"
    },
    {
      "constant": false,
      "inputs": [
        {
          "name": "_date",
          "type": "string"
        },
        {
          "name": "landIndex",
          "type": "uint256"
        },
        {
          "name": "newLandOwner",
          "type": "address"
        },
        {
          "name": "newLandOwnerName",
          "type": "string"
        },
        {
          "name": "ids",
          "type": "uint256"
        },
        {
          "name": "mode_of_payment",
          "type": "string"
        },
        {
          "name": "property_Price",
          "type": "uint256"
        },
        {
          "name": "property_for",
          "type": "string"
        }
      ],
      "name": "transferLandTransaction",
      "outputs": [],
      "payable": false,
      "stateMutability": "nonpayable",
      "type": "function",
      "signature": "0x8f8793d4"
    },
    {
      "constant": false,
      "inputs": [
        {
          "name": "_index",
          "type": "uint256"
        }
      ],
      "name": "validateAddLandTransaction",
      "outputs": [],
      "payable": false,
      "stateMutability": "nonpayable",
      "type": "function",
      "signature": "0x882f81e5"
    },
    {
      "constant": false,
      "inputs": [
        {
          "name": "_index",
          "type": "uint256"
        }
      ],
      "name": "validateTransferLandTransaction",
      "outputs": [],
      "payable": false,
      "stateMutability": "nonpayable",
      "type": "function",
      "signature": "0xbd76d9b3"
    },
    {
      "constant": true,
      "inputs": [
        {
          "name": "_index",
          "type": "uint256"
        }
      ],
      "name": "getAddLandTransaction",
      "outputs": [
        {
          "components": [
            {
              "name": "index",
              "type": "uint256"
            },
            {
              "name": "createdBy",
              "type": "address"
            },
            {
              "name": "validators",
              "type": "address[]"
            },
            {
              "components": [
                {
                  "name": "property_id",
                  "type": "uint256"
                },
                {
                  "name": "owner_id",
                  "type": "address"
                },
                {
                  "name": "ownerName",
                  "type": "string"
                },
                {
                  "name": "locality_id",
                  "type": "uint256"
                },
                {
                  "name": "previousOwners",
                  "type": "address[]"
                },
                {
                  "name": "current_status",
                  "type": "string"
                },
                {
                  "name": "_address",
                  "type": "string"
                },
                {
                  "name": "area",
                  "type": "uint256"
                },
                {
                  "name": "registration_number",
                  "type": "uint256[]"
                }
              ],
              "name": "land",
              "type": "tuple"
            },
            {
              "name": "status",
              "type": "string"
            }
          ],
          "name": "t",
          "type": "tuple"
        }
      ],
      "payable": false,
      "stateMutability": "view",
      "type": "function",
      "signature": "0x7e0517f4"
    },
    {
      "constant": true,
      "inputs": [
        {
          "name": "_index",
          "type": "uint256"
        }
      ],
      "name": "getTransferLandTransaction",
      "outputs": [
        {
          "components": [
            {
              "name": "registration_number",
              "type": "uint256"
            },
            {
              "name": "date",
              "type": "string"
            },
            {
              "name": "landIndex",
              "type": "uint256"
            },
            {
              "name": "newLandOwner",
              "type": "address"
            },
            {
              "name": "newLandOwnerName",
              "type": "string"
            },
            {
              "name": "property_id",
              "type": "uint256"
            },
            {
              "name": "deed_id",
              "type": "uint256"
            },
            {
              "name": "subDeed_id",
              "type": "uint256"
            },
            {
              "name": "SRO_office_id",
              "type": "uint256"
            },
            {
              "name": "locality_id",
              "type": "uint256"
            },
            {
              "name": "book_number",
              "type": "uint256"
            },
            {
              "name": "mode_of_payment",
              "type": "string"
            },
            {
              "name": "landOwnerSeller",
              "type": "address"
            },
            {
              "name": "status",
              "type": "string"
            },
            {
              "name": "createdBy",
              "type": "address"
            },
            {
              "name": "validators",
              "type": "address[]"
            },
            {
              "name": "property_Price",
              "type": "uint256"
            },
            {
              "name": "property_for",
              "type": "string"
            }
          ],
          "name": "t",
          "type": "tuple"
        }
      ],
      "payable": false,
      "stateMutability": "view",
      "type": "function",
      "signature": "0xe9158a56"
    },
    {
      "constant": true,
      "inputs": [],
      "name": "getAddLandTransactionsLength",
      "outputs": [
        {
          "name": "",
          "type": "uint256"
        }
      ],
      "payable": false,
      "stateMutability": "view",
      "type": "function",
      "signature": "0x46de3dfb"
    },
    {
      "constant": true,
      "inputs": [],
      "name": "getTransferLandTransactionsLength",
      "outputs": [
        {
          "name": "",
          "type": "uint256"
        }
      ],
      "payable": false,
      "stateMutability": "view",
      "type": "function",
      "signature": "0x458c1434"
    },
    {
      "constant": true,
      "inputs": [],
      "name": "getLandsLength",
      "outputs": [
        {
          "name": "",
          "type": "uint256"
        }
      ],
      "payable": false,
      "stateMutability": "view",
      "type": "function",
      "signature": "0xd00e1fa9"
    },
    {
      "constant": true,
      "inputs": [
        {
          "name": "_index",
          "type": "uint256"
        }
      ],
      "name": "getLandById",
      "outputs": [
        {
          "components": [
            {
              "name": "property_id",
              "type": "uint256"
            },
            {
              "name": "owner_id",
              "type": "address"
            },
            {
              "name": "ownerName",
              "type": "string"
            },
            {
              "name": "locality_id",
              "type": "uint256"
            },
            {
              "name": "previousOwners",
              "type": "address[]"
            },
            {
              "name": "current_status",
              "type": "string"
            },
            {
              "name": "_address",
              "type": "string"
            },
            {
              "name": "area",
              "type": "uint256"
            },
            {
              "name": "registration_number",
              "type": "uint256[]"
            }
          ],
          "name": "l",
          "type": "tuple"
        }
      ],
      "payable": false,
      "stateMutability": "view",
      "type": "function",
      "signature": "0x727c04c8"
    },
    {
      "constant": true,
      "inputs": [],
      "name": "getLandA",
      "outputs": [
        {
          "components": [
            {
              "name": "property_id",
              "type": "uint256"
            },
            {
              "name": "owner_id",
              "type": "address"
            },
            {
              "name": "ownerName",
              "type": "string"
            },
            {
              "name": "locality_id",
              "type": "uint256"
            },
            {
              "name": "previousOwners",
              "type": "address[]"
            },
            {
              "name": "current_status",
              "type": "string"
            },
            {
              "name": "_address",
              "type": "string"
            },
            {
              "name": "area",
              "type": "uint256"
            },
            {
              "name": "registration_number",
              "type": "uint256[]"
            }
          ],
          "name": "l",
          "type": "tuple[]"
        }
      ],
      "payable": false,
      "stateMutability": "view",
      "type": "function",
      "signature": "0xdbed686c"
    },
    {
      "constant": true,
      "inputs": [],
      "name": "getAddLandTransactionsA",
      "outputs": [
        {
          "components": [
            {
              "name": "index",
              "type": "uint256"
            },
            {
              "name": "createdBy",
              "type": "address"
            },
            {
              "name": "validators",
              "type": "address[]"
            },
            {
              "components": [
                {
                  "name": "property_id",
                  "type": "uint256"
                },
                {
                  "name": "owner_id",
                  "type": "address"
                },
                {
                  "name": "ownerName",
                  "type": "string"
                },
                {
                  "name": "locality_id",
                  "type": "uint256"
                },
                {
                  "name": "previousOwners",
                  "type": "address[]"
                },
                {
                  "name": "current_status",
                  "type": "string"
                },
                {
                  "name": "_address",
                  "type": "string"
                },
                {
                  "name": "area",
                  "type": "uint256"
                },
                {
                  "name": "registration_number",
                  "type": "uint256[]"
                }
              ],
              "name": "land",
              "type": "tuple"
            },
            {
              "name": "status",
              "type": "string"
            }
          ],
          "name": "l",
          "type": "tuple[]"
        }
      ],
      "payable": false,
      "stateMutability": "view",
      "type": "function",
      "signature": "0x984a2e86"
    },
    {
      "constant": true,
      "inputs": [],
      "name": "getTransferLandTransactionsA",
      "outputs": [
        {
          "components": [
            {
              "name": "registration_number",
              "type": "uint256"
            },
            {
              "name": "date",
              "type": "string"
            },
            {
              "name": "landIndex",
              "type": "uint256"
            },
            {
              "name": "newLandOwner",
              "type": "address"
            },
            {
              "name": "newLandOwnerName",
              "type": "string"
            },
            {
              "name": "property_id",
              "type": "uint256"
            },
            {
              "name": "deed_id",
              "type": "uint256"
            },
            {
              "name": "subDeed_id",
              "type": "uint256"
            },
            {
              "name": "SRO_office_id",
              "type": "uint256"
            },
            {
              "name": "locality_id",
              "type": "uint256"
            },
            {
              "name": "book_number",
              "type": "uint256"
            },
            {
              "name": "mode_of_payment",
              "type": "string"
            },
            {
              "name": "landOwnerSeller",
              "type": "address"
            },
            {
              "name": "status",
              "type": "string"
            },
            {
              "name": "createdBy",
              "type": "address"
            },
            {
              "name": "validators",
              "type": "address[]"
            },
            {
              "name": "property_Price",
              "type": "uint256"
            },
            {
              "name": "property_for",
              "type": "string"
            }
          ],
          "name": "l",
          "type": "tuple[]"
        }
      ],
      "payable": false,
      "stateMutability": "view",
      "type": "function",
      "signature": "0xf8e58077"
    },
    {
      "constant": true,
      "inputs": [
        {
          "name": "owner_id",
          "type": "address"
        }
      ],
      "name": "getLandByOwner",
      "outputs": [
        {
          "components": [
            {
              "name": "property_id",
              "type": "uint256"
            },
            {
              "name": "owner_id",
              "type": "address"
            },
            {
              "name": "ownerName",
              "type": "string"
            },
            {
              "name": "locality_id",
              "type": "uint256"
            },
            {
              "name": "previousOwners",
              "type": "address[]"
            },
            {
              "name": "current_status",
              "type": "string"
            },
            {
              "name": "_address",
              "type": "string"
            },
            {
              "name": "area",
              "type": "uint256"
            },
            {
              "name": "registration_number",
              "type": "uint256[]"
            }
          ],
          "name": "l1",
          "type": "tuple[]"
        }
      ],
      "payable": false,
      "stateMutability": "view",
      "type": "function",
      "signature": "0x3412e435"
    }
  ],
  "bytecode": "0x6080604052600160085534801561001557600080fd5b5060008054600160a060020a0319163317905561402a806100376000396000f30060806040526004361061013d5763ffffffff7c01000000000000000000000000000000000000000000000000000000006000350416631165e6ab81146101425780631327d3d81461017857806313af4035146101985780633412e435146101ba578063458c1434146101e757806346de3dfb14610209578063623cb3e31461021e578063727c04c81461023e5780637e0517f41461026b5780637fdc2cdc14610298578063882f81e5146102b85780638f8793d4146102d8578063984a2e86146102f8578063bd76d9b31461031a578063c1a94ecd1461033a578063c4abf19f1461035a578063c58343ef1461037a578063c8cf4722146103a9578063d00e1fa9146103be578063d7d1bbdb146103d3578063dbed686c146103f3578063e9158a5614610408578063f8e5807714610435578063facd743b14610457575b600080fd5b34801561014e57600080fd5b5061016261015d366004613605565b610477565b60405161016f9190613e83565b60405180910390f35b34801561018457600080fd5b50610162610193366004613605565b61048b565b3480156101a457600080fd5b506101b86101b3366004613605565b6104b2565b005b3480156101c657600080fd5b506101da6101d5366004613605565b6104d4565b60405161016f9190613e61565b3480156101f357600080fd5b506101fc6109c7565b60405161016f9190613f0a565b34801561021557600080fd5b506101fc6109ce565b34801561022a57600080fd5b506101b8610239366004613605565b6109d4565b34801561024a57600080fd5b5061025e610259366004613809565b610a47565b60405161016f9190613ee8565b34801561027757600080fd5b5061028b610286366004613809565b610d9e565b60405161016f9190613ed7565b3480156102a457600080fd5b506101b86102b3366004613809565b6111eb565b3480156102c457600080fd5b506101b86102d3366004613809565b6112b3565b3480156102e457600080fd5b506101b86102f33660046136fa565b6113c4565b34801561030457600080fd5b5061030d61163c565b60405161016f9190613e50565b34801561032657600080fd5b506101b8610335366004613809565b611acf565b34801561034657600080fd5b50610162610355366004613605565b611bdb565b34801561036657600080fd5b506101b861037536600461362b565b611bf9565b34801561038657600080fd5b5061039a610395366004613809565b611f3b565b60405161016f93929190613f18565b3480156103b557600080fd5b506101fc611fa7565b3480156103ca57600080fd5b506101fc611fad565b3480156103df57600080fd5b506101b86103ee366004613809565b611fb3565b3480156103ff57600080fd5b506101da6120e6565b34801561041457600080fd5b50610428610423366004613809565b612450565b60405161016f9190613ef9565b34801561044157600080fd5b5061044a61289a565b60405161016f9190613e72565b34801561046357600080fd5b50610162610472366004613605565b612d57565b600054600160a060020a0391821691161490565b600160a060020a03166000908152600160208190526040909120805460ff19168217905590565b60008054600160a060020a031916600160a060020a0392909216919091179055565b3360009081526002602052604081205460609190819060ff1615156001148061051257503360009081526001602081905260409091205460ff161515145b806105275750600054600160a060020a031633145b15156105515760405160e560020a62461bcd02815260040161054890613e97565b60405180910390fd5b5060005b6005548110156106c25783600160a060020a031660058281548110151561057857fe5b6000918252602090912060016009909202010154600160a060020a031614156106ba57816005828154811015156105ab57fe5b600091825260208083208454600181810180885596865292909420600993840290910180549490930201928355808201548382018054600160a060020a031916600160a060020a0390921691909117905560028083018054939493610623938386019390821615610100026000190190911604613181565b50600382015481600301556004820181600401908054610644929190613206565b506005820181600501908054600181600116156101000203166002900461066c929190613181565b5060068201816006019080546001816001161561010002031660029004610694929190613181565b506007820154816007015560088201816008019080546106b5929190613252565b505050505b600101610555565b81805480602002602001604051908101604052809291908181526020016000905b828210156109ba57600084815260209081902060408051610120810182526009860290920180548352600180820154600160a060020a0316848601526002808301805485516101009482161594909402600019011691909104601f81018790048702830187018552808352949592949386019391929091908301828280156107ac5780601f10610781576101008083540402835291602001916107ac565b820191906000526020600020905b81548152906001019060200180831161078f57829003601f168201915b50505050508152602001600382015481526020016004820180548060200260200160405190810160405280929190818152602001828054801561081857602002820191906000526020600020905b8154600160a060020a031681526001909101906020018083116107fa575b505050918352505060058201805460408051602060026001851615610100026000190190941693909304601f81018490048402820184019092528181529382019392918301828280156108ac5780601f10610881576101008083540402835291602001916108ac565b820191906000526020600020905b81548152906001019060200180831161088f57829003601f168201915b505050918352505060068201805460408051602060026001851615610100026000190190941693909304601f81018490048402820184019092528181529382019392918301828280156109405780601f1061091557610100808354040283529160200191610940565b820191906000526020600020905b81548152906001019060200180831161092357829003601f168201915b5050505050815260200160078201548152602001600882018054806020026020016040519081016040528092919081815260200182805480156109a257602002820191906000526020600020905b81548152602001906001019080831161098e575b505050505081525050815260200190600101906106e3565b5050505092505050919050565b6007545b90565b60065490565b3360009081526001602081905260409091205460ff1615151480610a025750600054600160a060020a031633145b1515610a235760405160e560020a62461bcd02815260040161054890613eb7565b600160a060020a03166000908152600260205260409020805460ff19166001179055565b610a4f613291565b610a57613291565b3360009081526002602052604090205460ff16151560011480610a8f57503360009081526001602081905260409091205460ff161515145b80610aa45750600054600160a060020a031633145b1515610ac55760405160e560020a62461bcd02815260040161054890613e97565b6005805484908110610ad357fe5b6000918252602091829020604080516101208101825260099390930290910180548352600180820154600160a060020a0316848601526002808301805485516101009482161594909402600019011691909104601f8101879004870283018701855280835294959294938601939192909190830182828015610b965780601f10610b6b57610100808354040283529160200191610b96565b820191906000526020600020905b815481529060010190602001808311610b7957829003601f168201915b505050505081526020016003820154815260200160048201805480602002602001604051908101604052809291908181526020018280548015610c0257602002820191906000526020600020905b8154600160a060020a03168152600190910190602001808311610be4575b505050918352505060058201805460408051602060026001851615610100026000190190941693909304601f8101849004840282018401909252818152938201939291830182828015610c965780601f10610c6b57610100808354040283529160200191610c96565b820191906000526020600020905b815481529060010190602001808311610c7957829003601f168201915b505050918352505060068201805460408051602060026001851615610100026000190190941693909304601f8101849004840282018401909252818152938201939291830182828015610d2a5780601f10610cff57610100808354040283529160200191610d2a565b820191906000526020600020905b815481529060010190602001808311610d0d57829003601f168201915b505050505081526020016007820154815260200160088201805480602002602001604051908101604052809291908181526020018280548015610d8c57602002820191906000526020600020905b815481526020019060010190808311610d78575b50505091909252509195945050505050565b610da66132e7565b610dae6132e7565b3360009081526001602081905260409091205460ff1615151480610ddc5750600054600160a060020a031633145b1515610dfd5760405160e560020a62461bcd02815260040161054890613eb7565b6006805484908110610e0b57fe5b60009182526020918290206040805160a081018252600d909302909101805483526001810154600160a060020a0316838501526002810180548351818702810187018552818152949592949386019392830182828015610e9457602002820191906000526020600020905b8154600160a060020a03168152600190910190602001808311610e76575b5050509183525050604080516101208101825260038401805482526004850154600160a060020a03166020838101919091526005860180548551601f60026000196001851615610100020190931692909204918201849004840281018401875281815296830196949593949386019392830182828015610f555780601f10610f2a57610100808354040283529160200191610f55565b820191906000526020600020905b815481529060010190602001808311610f3857829003601f168201915b505050505081526020016003820154815260200160048201805480602002602001604051908101604052809291908181526020018280548015610fc157602002820191906000526020600020905b8154600160a060020a03168152600190910190602001808311610fa3575b505050918352505060058201805460408051602060026001851615610100026000190190941693909304601f81018490048402820184019092528181529382019392918301828280156110555780601f1061102a57610100808354040283529160200191611055565b820191906000526020600020905b81548152906001019060200180831161103857829003601f168201915b505050918352505060068201805460408051602060026001851615610100026000190190941693909304601f81018490048402820184019092528181529382019392918301828280156110e95780601f106110be576101008083540402835291602001916110e9565b820191906000526020600020905b8154815290600101906020018083116110cc57829003601f168201915b50505050508152602001600782015481526020016008820180548060200260200160405190810160405280929190818152602001828054801561114b57602002820191906000526020600020905b815481526020019060010190808311611137575b505050919092525050508152600c8201805460408051602060026001851615610100026000190190941693909304601f8101849004840282018401909252818152938201939291830182828015610d8c5780601f106111b857610100808354040283529160200191610d8c565b820191906000526020600020905b8154815290600101906020018083116111c65750505091909252509195945050505050565b6111f3613327565b5060408051606081018252600380548083526020830194855233938301938452600181018255600082905291517fc2575a0e9e593c00f959f8c92f12db2869c3395a3b0502d05e2516446f71f85b929091029182015591517fc2575a0e9e593c00f959f8c92f12db2869c3395a3b0502d05e2516446f71f85c830155517fc2575a0e9e593c00f959f8c92f12db2869c3395a3b0502d05e2516446f71f85d9091018054600160a060020a031916600160a060020a03909216919091179055565b336000908152600160208190526040822054829160ff909116151514806112e45750600054600160a060020a031633145b15156113055760405160e560020a62461bcd02815260040161054890613eb7565b600680548490811061131357fe5b90600052602060002090600d02019150600090505b6002820154811015611385576002820180543391908390811061134757fe5b600091825260209091200154600160a060020a0316141561137d5760405160e560020a62461bcd02815260040161054890613ea7565b600101611328565b600282018054600181018255600082815260209020018054600160a060020a03191633179055600854905414156113bf576113bf82612d75565b505050565b6113cc613352565b3360009081526002602052604081205460ff1615156001148061140457503360009081526001602081905260409091205460ff161515145b806114195750600054600160a060020a031633145b151561143a5760405160e560020a62461bcd02815260040161054890613e97565b600580548a90811061144857fe5b60009182526020808320600780546001810180835591909552865160129095027fa66cc928b5edb82af9bd49922954155ab7b0942694bea4ce44661d9a8736c6888101958655878401518051600990960290930196509094879490936114d4937fa66cc928b5edb82af9bd49922954155ab7b0942694bea4ce44661d9a8736c6899093019201906133f9565b50604082015160028201556060820151600382018054600160a060020a031916600160a060020a03909216919091179055608082015180516115209160048401916020909101906133f9565b5060a0820151600582015560c0820151600682015560e0820151600782015561010082015160088201556101208201516009820155610140820151600a820155610160820151805161157c91600b8401916020909101906133f9565b50610180820151600c82018054600160a060020a031916600160a060020a039092169190911790556101a082015180516115c091600d8401916020909101906133f9565b506101c0820151600e82018054600160a060020a031916600160a060020a039092169190911790556101e0820151805161160491600f840191602090910190613467565b506102008201516010820155610220820151805161162c9160118401916020909101906133f9565b5050505050505050505050505050565b3360009081526002602052604090205460609060ff1615156001148061167757503360009081526001602081905260409091205460ff161515145b8061168c5750600054600160a060020a031633145b15156116ad5760405160e560020a62461bcd02815260040161054890613e97565b6006805480602002602001604051908101604052809291908181526020016000905b82821015611ac65760008481526020908190206040805160a081018252600d8602909201805483526001810154600160a060020a031683850152600281018054835181870281018701855281815294959294938601939283018282801561175f57602002820191906000526020600020905b8154600160a060020a03168152600190910190602001808311611741575b5050509183525050604080516101208101825260038401805482526004850154600160a060020a03166020838101919091526005860180548551601f600260001960018516156101000201909316929092049182018490048402810184018752818152968301969495939493860193928301828280156118205780601f106117f557610100808354040283529160200191611820565b820191906000526020600020905b81548152906001019060200180831161180357829003601f168201915b50505050508152602001600382015481526020016004820180548060200260200160405190810160405280929190818152602001828054801561188c57602002820191906000526020600020905b8154600160a060020a0316815260019091019060200180831161186e575b505050918352505060058201805460408051602060026001851615610100026000190190941693909304601f81018490048402820184019092528181529382019392918301828280156119205780601f106118f557610100808354040283529160200191611920565b820191906000526020600020905b81548152906001019060200180831161190357829003601f168201915b505050918352505060068201805460408051602060026001851615610100026000190190941693909304601f81018490048402820184019092528181529382019392918301828280156119b45780601f10611989576101008083540402835291602001916119b4565b820191906000526020600020905b81548152906001019060200180831161199757829003601f168201915b505050505081526020016007820154815260200160088201805480602002602001604051908101604052809291908181526020018280548015611a1657602002820191906000526020600020905b815481526020019060010190808311611a02575b505050919092525050508152600c8201805460408051602060026001851615610100026000190190941693909304601f8101849004840282018401909252818152938201939291830182828015611aae5780601f10611a8357610100808354040283529160200191611aae565b820191906000526020600020905b815481529060010190602001808311611a9157829003601f168201915b505050505081525050815260200190600101906116cf565b50505050905090565b336000908152600160208190526040822054829160ff90911615151480611b005750600054600160a060020a031633145b1515611b215760405160e560020a62461bcd02815260040161054890613eb7565b6007805484908110611b2f57fe5b90600052602060002090601202019150600090505b600f820154811015611ba157600f8201805433919083908110611b6357fe5b600091825260209091200154600160a060020a03161415611b995760405160e560020a62461bcd02815260040161054890613ea7565b600101611b44565b600f82018054600181018255600082815260209020018054600160a060020a03191633179055600854905414156113bf576113bf82612f7b565b600160a060020a031660009081526002602052604090205460ff1690565b611c01613291565b611c096132e7565b3360009081526002602052604090205460ff16151560011480611c4157503360009081526001602081905260409091205460ff161515145b80611c565750600054600160a060020a031633145b1515611c775760405160e560020a62461bcd02815260040161054890613e97565b610120604051908101604052806000815260200189600160a060020a031681526020018881526020018781526020016000604051908082528060200260200182016040528015611cd1578160200160208202803883390190505b5081526020018681526020018581526020018481526020016000604051908082528060200260200182016040528015611d14578160200160208202803883390190505b5090526040805160a08101825260068054808352336020808501918252855160008082528183018852868801918252606087018990528751808901909852600788527f50656e64696e670000000000000000000000000000000000000000000000000088840152608087019790975260018401808655949096528451600d9093027ff652222313e28459528d920b65115c16c04f3efc82aaedc97be59f3f377c0d3f810193845591517ff652222313e28459528d920b65115c16c04f3efc82aaedc97be59f3f377c0d4083018054600160a060020a03909216600160a060020a031990921691909117905594518051969850939650919486949193611e3d937ff652222313e28459528d920b65115c16c04f3efc82aaedc97be59f3f377c0d4101920190613467565b506060820151805160038301908155602080830151600485018054600160a060020a031916600160a060020a0390921691909117905560408301518051611e8a92600587019201906133f9565b506060820151600382015560808201518051611eb0916004840191602090910190613467565b5060a08201518051611ecc9160058401916020909101906133f9565b5060c08201518051611ee89160068401916020909101906133f9565b5060e082015160078201556101008201518051611f0f9160088401916020909101906134bc565b50505060808201518051611f2d91600c8401916020909101906133f9565b505050505050505050505050565b6000806000611f48613327565b6003805486908110611f5657fe5b60009182526020918290206040805160608101825260039390930290910180548084526001820154948401859052600290910154600160a060020a0316929091018290529790965090945092505050565b60035490565b60055490565b33600090815260016020819052604082205460ff1615151480611fe05750600054600160a060020a031633145b15156120015760405160e560020a62461bcd02815260040161054890613eb7565b600380548390811061200f57fe5b60009182526020822060039091020191508160010154141561209557600281015461204290600160a060020a031661048b565b50600380548390811061205157fe5b600091825260208220600391820201828155600181019290925560029091018054600160a060020a031916905580549061208f9060001983016134f6565b506120e2565b6001816001015414156120c75760028101546120b990600160a060020a03166109d4565b600380548390811061205157fe5b60405160e560020a62461bcd02815260040161054890613ec7565b5050565b3360009081526002602052604090205460609060ff1615156001148061212157503360009081526001602081905260409091205460ff161515145b806121365750600054600160a060020a031633145b15156121575760405160e560020a62461bcd02815260040161054890613e97565b6005805480602002602001604051908101604052809291908181526020016000905b82821015611ac657600084815260209081902060408051610120810182526009860290920180548352600180820154600160a060020a0316848601526002808301805485516101009482161594909402600019011691909104601f81018790048702830187018552808352949592949386019391929091908301828280156122425780601f1061221757610100808354040283529160200191612242565b820191906000526020600020905b81548152906001019060200180831161222557829003601f168201915b5050505050815260200160038201548152602001600482018054806020026020016040519081016040528092919081815260200182805480156122ae57602002820191906000526020600020905b8154600160a060020a03168152600190910190602001808311612290575b505050918352505060058201805460408051602060026001851615610100026000190190941693909304601f81018490048402820184019092528181529382019392918301828280156123425780601f1061231757610100808354040283529160200191612342565b820191906000526020600020905b81548152906001019060200180831161232557829003601f168201915b505050918352505060068201805460408051602060026001851615610100026000190190941693909304601f81018490048402820184019092528181529382019392918301828280156123d65780601f106123ab576101008083540402835291602001916123d6565b820191906000526020600020905b8154815290600101906020018083116123b957829003601f168201915b50505050508152602001600782015481526020016008820180548060200260200160405190810160405280929190818152602001828054801561243857602002820191906000526020600020905b815481526020019060010190808311612424575b50505050508152505081526020019060010190612179565b612458613352565b612460613352565b3360009081526001602081905260409091205460ff161515148061248e5750600054600160a060020a031633145b15156124af5760405160e560020a62461bcd02815260040161054890613eb7565b60078054849081106124bd57fe5b9060005260206000209060120201610240604051908101604052908160008201548152602001600182018054600181600116156101000203166002900480601f01602080910402602001604051908101604052809291908181526020018280546001816001161561010002031660029004801561257b5780601f106125505761010080835404028352916020019161257b565b820191906000526020600020905b81548152906001019060200180831161255e57829003601f168201915b50505091835250506002828101546020808401919091526003840154600160a060020a031660408085019190915260048501805482516101006001831615026000190190911694909404601f8101849004840285018401909252818452606090940193918301828280156126305780601f1061260557610100808354040283529160200191612630565b820191906000526020600020905b81548152906001019060200180831161261357829003601f168201915b505050505081526020016005820154815260200160068201548152602001600782015481526020016008820154815260200160098201548152602001600a8201548152602001600b82018054600181600116156101000203166002900480601f01602080910402602001604051908101604052809291908181526020018280546001816001161561010002031660029004801561270e5780601f106126e35761010080835404028352916020019161270e565b820191906000526020600020905b8154815290600101906020018083116126f157829003601f168201915b5050509183525050600c820154600160a060020a0316602080830191909152600d8301805460408051601f600260001960018616156101000201909416939093049283018590048502810185018252828152940193928301828280156127b55780601f1061278a576101008083540402835291602001916127b5565b820191906000526020600020905b81548152906001019060200180831161279857829003601f168201915b5050509183525050600e820154600160a060020a0316602080830191909152600f83018054604080518285028101850182528281529401939283018282801561282757602002820191906000526020600020905b8154600160a060020a03168152600190910190602001808311612809575b5050509183525050601082015460208083019190915260118301805460408051601f60026000196101006001871615020190941693909304928301859004850281018501825282815294019392830182828015610d8c5780601f106111b857610100808354040283529160200191610d8c565b3360009081526002602052604090205460609060ff161515600114806128d557503360009081526001602081905260409091205460ff161515145b806128ea5750600054600160a060020a031633145b151561290b5760405160e560020a62461bcd02815260040161054890613e97565b6007805480602002602001604051908101604052809291908181526020016000905b82821015611ac65783829060005260206000209060120201610240604051908101604052908160008201548152602001600182018054600181600116156101000203166002900480601f0160208091040260200160405190810160405280929190818152602001828054600181600116156101000203166002900480156129f55780601f106129ca576101008083540402835291602001916129f5565b820191906000526020600020905b8154815290600101906020018083116129d857829003601f168201915b50505091835250506002828101546020808401919091526003840154600160a060020a031660408085019190915260048501805482516101006001831615026000190190911694909404601f810184900484028501840190925281845260609094019391830182828015612aaa5780601f10612a7f57610100808354040283529160200191612aaa565b820191906000526020600020905b815481529060010190602001808311612a8d57829003601f168201915b505050505081526020016005820154815260200160068201548152602001600782015481526020016008820154815260200160098201548152602001600a8201548152602001600b82018054600181600116156101000203166002900480601f016020809104026020016040519081016040528092919081815260200182805460018160011615610100020316600290048015612b885780601f10612b5d57610100808354040283529160200191612b88565b820191906000526020600020905b815481529060010190602001808311612b6b57829003601f168201915b5050509183525050600c820154600160a060020a0316602080830191909152600d8301805460408051601f60026000196001861615610100020190941693909304928301859004850281018501825282815294019392830182828015612c2f5780601f10612c0457610100808354040283529160200191612c2f565b820191906000526020600020905b815481529060010190602001808311612c1257829003601f168201915b5050509183525050600e820154600160a060020a0316602080830191909152600f830180546040805182850281018501825282815294019392830182828015612ca157602002820191906000526020600020905b8154600160a060020a03168152600190910190602001808311612c83575b5050509183525050601082015460208083019190915260118301805460408051601f60026000196101006001871615020190941693909304928301859004850281018501825282815294019392830182828015612d3f5780601f10612d1457610100808354040283529160200191612d3f565b820191906000526020600020905b815481529060010190602001808311612d2257829003601f168201915b5050505050815250508152602001906001019061292d565b600160a060020a031660009081526001602052604090205460ff1690565b3360009081526001602081905260409091205460ff1615151480612da35750600054600160a060020a031633145b1515612dc45760405160e560020a62461bcd02815260040161054890613eb7565b60055460038201556040805180820190915260098082527f56616c69646174656400000000000000000000000000000000000000000000006020909201918252612e1291600c8401916133f9565b50600580546001818101808455600084905260038501805460099094027f036b6384b5eca791c62761152d0c79bb0604c104a5fb6f4eb0703f3154bb3db0810194855560048701547f036b6384b5eca791c62761152d0c79bb0604c104a5fb6f4eb0703f3154bb3db182018054600160a060020a031916600160a060020a0390921691909117905594860180549295919493612ee2937f036b6384b5eca791c62761152d0c79bb0604c104a5fb6f4eb0703f3154bb3db29093019260029181161561010002600019011604613181565b50600382015481600301556004820181600401908054612f03929190613206565b5060058201816005019080546001816001161561010002031660029004612f2b929190613181565b5060068201816006019080546001816001161561010002031660029004612f53929190613181565b50600782015481600701556008820181600801908054612f74929190613252565b5050505050565b3360009081526001602081905260409091205460ff1615151480612fa95750600054600160a060020a031633145b1515612fca5760405160e560020a62461bcd02815260040161054890613eb7565b60058160020154815481101515612fdd57fe5b90600052602060002090600902016004016005826002015481548110151561300157fe5b60009182526020808320600160099093020182015484549283018555938352909120018054600160a060020a031916600160a060020a039283161790556003820154600283015460058054929093169291811061305a57fe5b906000526020600020906009020160010160006101000a815481600160a060020a030219169083600160a060020a0316021790555080600401600582600201548154811015156130a657fe5b906000526020600020906009020160020190805460018160011615610100020316600290046130d6929190613181565b50600581600201548154811015156130ea57fe5b600091825260208083208454600993840290910160080180546001810182559085529382902090930192909255604080518082019091529081527f56616c696461746564000000000000000000000000000000000000000000000091810191909152815460078054909190811061315d57fe5b9060005260206000209060120201600d0190805190602001906120e29291906133f9565b828054600181600116156101000203166002900490600052602060002090601f016020900481019282601f106131ba57805485556131f6565b828001600101855582156131f657600052602060002091601f016020900482015b828111156131f65782548255916001019190600101906131db565b50613202929150613522565b5090565b8280548282559060005260206000209081019282156132465760005260206000209182015b8281111561324657825482559160010191906001019061322b565b5061320292915061353c565b8280548282559060005260206000209081019282156131f6576000526020600020918201828111156131f65782548255916001019190600101906131db565b61012060405190810160405280600081526020016000600160a060020a03168152602001606081526020016000815260200160608152602001606081526020016060815260200160008152602001606081525090565b6101a060405190810160405280600081526020016000600160a060020a031681526020016060815260200161331a613291565b8152602001606081525090565b60606040519081016040528060008152602001600081526020016000600160a060020a031681525090565b610240604051908101604052806000815260200160608152602001600081526020016000600160a060020a0316815260200160608152602001600081526020016000815260200160008152602001600081526020016000815260200160008152602001606081526020016000600160a060020a03168152602001606081526020016000600160a060020a031681526020016060815260200160008152602001606081525090565b828054600181600116156101000203166002900490600052602060002090601f016020900481019282601f1061343a57805160ff19168380011785556131f6565b828001600101855582156131f6579182015b828111156131f657825182559160200191906001019061344c565b828054828255906000526020600020908101928215613246579160200282015b828111156132465782518254600160a060020a031916600160a060020a03909116178255602090920191600190910190613487565b8280548282559060005260206000209081019282156131f657916020028201828111156131f657825182559160200191906001019061344c565b8154818355818111156113bf576003028160030283600052602060002091820191016113bf9190613560565b6109cb91905b808211156132025760008155600101613528565b6109cb91905b80821115613202578054600160a060020a0319168155600101613542565b6109cb91905b808211156132025760008082556001820155600281018054600160a060020a0319169055600301613566565b600061359e8235613f99565b9392505050565b6000601f820183136135b657600080fd5b81356135c96135c482613f67565b613f40565b915080825260208301602083018583830111156135e557600080fd5b6135f0838284613faa565b50505092915050565b600061359e82356109cb565b60006020828403121561361757600080fd5b60006136238484613592565b949350505050565b60008060008060008060c0878903121561364457600080fd5b60006136508989613592565b965050602087013567ffffffffffffffff81111561366d57600080fd5b61367989828a016135a5565b955050604061368a89828a016135f9565b945050606087013567ffffffffffffffff8111156136a757600080fd5b6136b389828a016135a5565b935050608087013567ffffffffffffffff8111156136d057600080fd5b6136dc89828a016135a5565b92505060a06136ed89828a016135f9565b9150509295509295509295565b600080600080600080600080610100898b03121561371757600080fd5b883567ffffffffffffffff81111561372e57600080fd5b61373a8b828c016135a5565b985050602061374b8b828c016135f9565b975050604061375c8b828c01613592565b965050606089013567ffffffffffffffff81111561377957600080fd5b6137858b828c016135a5565b95505060806137968b828c016135f9565b94505060a089013567ffffffffffffffff8111156137b357600080fd5b6137bf8b828c016135a5565b93505060c06137d08b828c016135f9565b92505060e089013567ffffffffffffffff8111156137ed57600080fd5b6137f98b828c016135a5565b9150509295985092959890939650565b60006020828403121561381b57600080fd5b600061362384846135f9565b61383081613f99565b82525050565b600061384182613f95565b80845260208401935061385383613f8f565b60005b8281101561388357613869868351613827565b61387282613f8f565b602096909601959150600101613856565b5093949350505050565b600061389882613f95565b808452602084019350836020820285016138b185613f8f565b60005b848110156138e85783830388526138cc838351613b67565b92506138d782613f8f565b6020989098019791506001016138b4565b50909695505050505050565b60006138ff82613f95565b8084526020840193508360208202850161391885613f8f565b60005b848110156138e8578383038852613933838351613be3565b925061393e82613f8f565b60209890980197915060010161391b565b600061395a82613f95565b8084526020840193508360208202850161397385613f8f565b60005b848110156138e857838303885261398e838351613cb3565b925061399982613f8f565b602098909801979150600101613976565b60006139b582613f95565b8084526020840193506139c783613f8f565b60005b82811015613883576139dd868351613e47565b6139e682613f8f565b6020969096019591506001016139ca565b61383081613fa5565b6000613a0b82613f95565b808452613a1f816020860160208601613fb6565b613a2881613fe6565b9093016020019392505050565b602e81527f53656e6465722061646472657373206973206e6f74207265676973746572656460208201527f206173207472616e736163746f72000000000000000000000000000000000000604082015260600190565b602381527f54686973206164647265737320697320616c726561647920612076616c69646160208201527f746f720000000000000000000000000000000000000000000000000000000000604082015260600190565b602d81527f53656e6465722061646472657373206973206e6f74207265676973746572656460208201527f2061732076616c696461746f7200000000000000000000000000000000000000604082015260600190565b601b81527f526f6c65206170706c69656420646f6573206e6f742065786973740000000000602082015260400190565b805160009060a0840190613b7b8582613e47565b506020830151613b8e6020860182613827565b5060408301518482036040860152613ba68282613836565b91505060608301518482036060860152613bc08282613be3565b91505060808301518482036080860152613bda8282613a00565b95945050505050565b8051600090610120840190613bf88582613e47565b506020830151613c0b6020860182613827565b5060408301518482036040860152613c238282613a00565b9150506060830151613c386060860182613e47565b5060808301518482036080860152613c508282613836565b91505060a083015184820360a0860152613c6a8282613a00565b91505060c083015184820360c0860152613c848282613a00565b91505060e0830151613c9960e0860182613e47565b50610100830151848203610100860152613bda82826139aa565b8051600090610240840190613cc88582613e47565b5060208301518482036020860152613ce08282613a00565b9150506040830151613cf56040860182613e47565b506060830151613d086060860182613827565b5060808301518482036080860152613d208282613a00565b91505060a0830151613d3560a0860182613e47565b5060c0830151613d4860c0860182613e47565b5060e0830151613d5b60e0860182613e47565b50610100830151613d70610100860182613e47565b50610120830151613d85610120860182613e47565b50610140830151613d9a610140860182613e47565b50610160830151848203610160860152613db48282613a00565b915050610180830151613dcb610180860182613827565b506101a08301518482036101a0860152613de58282613a00565b9150506101c0830151613dfc6101c0860182613827565b506101e08301518482036101e0860152613e168282613836565b915050610200830151613e2d610200860182613e47565b50610220830151848203610220860152613bda8282613a00565b613830816109cb565b6020808252810161359e818461388d565b6020808252810161359e81846138f4565b6020808252810161359e818461394f565b60208101613e9182846139f7565b92915050565b60208082528101613e9181613a35565b60208082528101613e9181613a8b565b60208082528101613e9181613ae1565b60208082528101613e9181613b37565b6020808252810161359e8184613b67565b6020808252810161359e8184613be3565b6020808252810161359e8184613cb3565b60208101613e918284613e47565b60608101613f268286613e47565b613f336020830185613827565b6136236040830184613e47565b60405181810167ffffffffffffffff81118282101715613f5f57600080fd5b604052919050565b600067ffffffffffffffff821115613f7e57600080fd5b506020601f91909101601f19160190565b60200190565b5190565b600160a060020a031690565b151590565b82818337506000910152565b60005b83811015613fd1578181015183820152602001613fb9565b83811115613fe0576000848401525b50505050565b601f01601f1916905600a265627a7a723058200696dc4b6e37f873efa73b1e822603dc939ed0be880c10cc04cfc46b256e66516c6578706572696d656e74616cf50037",
  "source": "pragma solidity ^0.4.17;\npragma experimental ABIEncoderV2;\n\nimport \"./ConvertLib.sol\";\n\n// This is just a simple example of a coin-like contract.\n// It is not standards compatible and cannot be expected to talk to other\n// coin/token contracts. If you want to create a standards-compliant\n// token, see: https://github.com/ConsenSys/Tokens. Cheers!\n\n\n//metacoin has access control\n\ncontract MetaCoin {\n   \n   \n   \n   \n   \n   \n   //----------------------------------------ACCESS CONTROL  ---------------------------------------------------\n   \n       address owner;\n    mapping(address => bool) validators;\n    mapping(address => bool) transactors;\n    RequestAccessTransaction[] requestAccessTransactions;\n\n    struct RequestAccessTransaction {\n        uint index;\n        uint roleRequested;        \n        address requesterAddress;\n    }\n\n    enum Roles {\n        VALIDATOR,\n        TRANSACTOR\n    }\n    \n    constructor() public {\n        owner = msg.sender;\n    }\n\n    modifier onlyOwner() {\n        //require(msg.sender == owner, \"Sender address is not owner\");\n        _;\n    }\n\n    modifier onlyValidator() {\n        require(validators[msg.sender] == true || msg.sender == owner, \"Sender address is not registered as validator\");\n        _;\n    }\n    \n    modifier onlyTransactor() {\n        require(\n            transactors[msg.sender] == true || validators[msg.sender] == true || owner == msg.sender, \"Sender address is not registered as transactor\");\n        _;\n    }\n\n    function requestAccess(uint _role) public  {\n        RequestAccessTransaction memory txn = RequestAccessTransaction({ \n            index: requestAccessTransactions.length,\n            roleRequested: _role,\n            requesterAddress: msg.sender\n        }); \n        \n        //structure ka object txn\n        \n        requestAccessTransactions.push(txn);\n        //pushed in the list\n    }\n\n    function approveRequest(uint _index) public onlyValidator {\n        RequestAccessTransaction storage txn = requestAccessTransactions[_index];\n        if (txn.roleRequested == uint(Roles.VALIDATOR)) {\n            setValidator(txn.requesterAddress);\n            delete requestAccessTransactions[_index];\n            requestAccessTransactions.length--;\n        } else if (txn.roleRequested == uint(Roles.TRANSACTOR)) {\n            setTransactor(txn.requesterAddress);\n            delete requestAccessTransactions[_index];\n            requestAccessTransactions.length--;\n        } else {\n            revert(\"Role applied does not exist\");\n        }\n    }\n\n    function getRequest(uint _index) public view returns (\n        uint,\n        address,\n        uint\n    ) {\n        RequestAccessTransaction memory txn = requestAccessTransactions[_index];\n        return (txn.index, txn.requesterAddress, txn.roleRequested);\n    }\n\n    function getRequestsLength() public view returns (uint) {\n        return requestAccessTransactions.length;\n    }\n\n    function setOwner(address _newOwner) public onlyOwner {\n        owner = _newOwner;\n    }\n\n    function setValidator(address _validatorAddress) public onlyOwner returns(bool sufficient){\n        validators[_validatorAddress] = true;\n        \n        return true;\n    }\n    \n    function setTransactor(address _transactorAddress) public onlyOwner onlyValidator {\n        transactors[_transactorAddress] = true;\n    }\n\n    function isValidator(address _adr) public view returns (bool) {\n        return validators[_adr];\n    }\n\n    function isTransactor(address _adr) public view returns (bool) {\n        return transactors[_adr];\n    }\n\n    function isCeo(address _adr) public view returns (bool) {\n        return owner == _adr;\n    }\n\n   \n   //------------------------------------------------------------------------------\n    \n    \n    \n    \n\n\n///.................................................................,.,.,.,.,.,.....................................\n//Land registry\n\n\n \n\n    struct Land {\n        uint property_id;\n        address owner_id;\n        string ownerName;\n        uint locality_id;\n        address[] previousOwners;\n        string current_status;\n        string _address;\n        uint area;\n        uint[] registration_number;\n    }\n    \n    \n    \n    struct AddLandTransaction {\n        uint index;\n        address createdBy;\n        address[] validators;\n        Land land;\n        string status;\n    }\n    \n    \n\n\n    struct TransferLandTransaction {\n        uint registration_number;\n        string date;\n        uint landIndex;\n        address newLandOwner;\n        string newLandOwnerName;\n        uint property_id;\n        uint deed_id;\n        uint subDeed_id;\n        uint SRO_office_id;\n        uint locality_id;\n        uint book_number;\n        string mode_of_payment;\n        address landOwnerSeller;\n        string status;\n        address createdBy;\n        address[] validators;\n        uint property_Price;\n        string property_for;\n    }\n    \n    mapping(address => uint[]) addressToLandIndexes;\n    Land[] lands;\n    AddLandTransaction[] addLandTransactions;\n    TransferLandTransaction[] transferLandTransactions;\n    uint requiredValidatorsLength = 1;\n    \n    \n    \n    \n    \n    ///////\n    function addLandTransaction(address owner_id, string memory ownerName, uint locality_id, string current_status, string _address, uint area) public onlyTransactor\n    {\n        Land memory land = Land({ \n            property_id: 0,\n            owner_id: owner_id,\n            ownerName: ownerName,\n            locality_id: locality_id,\n            previousOwners: new address[](0),\n            current_status:current_status,\n            _address:_address,\n            area:area,\n            registration_number: new uint[](0)\n        }); \n        \n        AddLandTransaction memory txn = AddLandTransaction({  \n            index: addLandTransactions.length,\n            createdBy: msg.sender,\n            validators: new address[](0),\n            land: land,\n            status: \"Pending\"\n        });\n        \n        addLandTransactions.push(txn);\n    }\n\n    ///////\n    function transferLandTransaction(string _date, uint landIndex, address newLandOwner,string newLandOwnerName, uint ids, \n    string mode_of_payment, uint property_Price, string property_for) public onlyTransactor\n    {\n        \n        TransferLandTransaction memory txn;\n        Land x = lands[landIndex];\n        \n        /*txn.registration_number = transferLandTransactions.length;\n        txn. property_id = ids%1000;\n        ids = ids/1000;\n        txn.deed_id = ids%1000;\n        ids = ids/1000;\n        txn.subDeed_id = ids%1000;\n        ids = ids/1000;\n        txn.SRO_office_id = ids%1000;\n        ids = ids/1000;\n        txn.locality_id = ids%1000;\n        ids = ids/1000;\n        txn.book_number = ids%1000;\n        txn.date = _date;\n        txn.landIndex = landIndex;\n        txn.newLandOwner = newLandOwner;\n        txn.newLandOwnerName = newLandOwnerName;\n        txn.mode_of_payment = mode_of_payment;\n        txn.landOwnerSeller = x.owner_id;\n        txn.status = \"Pending\";\n        txn.property_Price =  property_Price;\n        txn.property_for =  property_for;\n        txn.createdBy =  msg.sender;\n        txn.validators =  new address[](0);\n        */\n        \n        transferLandTransactions.push(txn);\n    }\n    \n    //////\n    function validateAddLandTransaction(uint _index) public onlyValidator {\n        AddLandTransaction storage txn = addLandTransactions[_index];\n        for (uint i = 0; i < txn.validators.length; i++) {\n            if (txn.validators[i] == msg.sender) {\n                revert(\"This address is already a validator\");\n            }\n        }\n        \n        txn.validators.push(msg.sender);\n\n        if (txn.validators.length == requiredValidatorsLength) {\n            addLand(txn);\n        }\n    }   \n\n    ///////////////////////\n    function validateTransferLandTransaction(uint _index) public onlyValidator {\n        TransferLandTransaction storage txn = transferLandTransactions[_index];\n        for (uint i = 0; i < txn.validators.length; i++) {\n            if (txn.validators[i] == msg.sender) {\n                revert(\"This address is already a validator\");\n            }\n        }\n\n        txn.validators.push(msg.sender);\n\n        if (txn.validators.length == requiredValidatorsLength) {\n            transferLand(txn);\n        }\n    }\n\n//////////////\n   function getAddLandTransaction(uint _index) public view onlyValidator returns (AddLandTransaction memory t) {\n        \n        AddLandTransaction memory txn = addLandTransactions[_index];\n        return txn;\n        \n    }\n\n//////////////\n    function getTransferLandTransaction(uint _index) public view onlyValidator returns (TransferLandTransaction memory t) {\n        TransferLandTransaction memory txn = transferLandTransactions[_index];\n        return txn;\n    }\n\n\n//////////////////////\n    function getAddLandTransactionsLength() public view returns (uint) {\n        return addLandTransactions.length;\n    }\n\n    function getTransferLandTransactionsLength() public view returns (uint) {\n        return transferLandTransactions.length;\n    }\n\n    function getLandsLength() public view returns (uint) {\n        return lands.length;\n    }\n\n\n\n/////////////\n    function getLandById(uint _index) public view onlyTransactor returns (Land memory l){ \n    \n    //uint property_id,address owner_id, string ownerName, uint locality_id, address[] previousOwners, string current_status,string address,\n    //uint area, uint[] registration_number) {\n        \n        Land memory land = lands[_index];\n        \n        return (land);\n    }\n\n\n//////////\n    function getLandA() public view onlyTransactor returns ( Land[] memory l) {\n        return (lands);\n    }\n    \n////////////\n    function getAddLandTransactionsA() public view onlyTransactor returns (AddLandTransaction[] memory l) {\n        return (addLandTransactions);\n    }\n    \n    function getTransferLandTransactionsA() public view onlyTransactor returns (TransferLandTransaction[] memory l) {\n        return (transferLandTransactions);\n    }\n   \n    ////\n    function addLand(AddLandTransaction storage _transaction) internal onlyValidator {\n        \n        _transaction.land.property_id = lands.length;\n        _transaction.status = \"Validated\";\n        lands.push(_transaction.land);\n        \n        //delete addLandTransactions[_transaction.index];\n        \n        //addLandTransactions.length--;\n\n    }\n    \n/////////////\n    function transferLand(TransferLandTransaction storage _transaction) internal onlyValidator {\n    \n        lands[_transaction.landIndex].previousOwners.push(lands[_transaction.landIndex].owner_id);\n        lands[_transaction.landIndex].owner_id = _transaction.newLandOwner;\n        lands[_transaction.landIndex].ownerName = _transaction.newLandOwnerName;\n        lands[_transaction.landIndex].registration_number.push(_transaction.registration_number);\n        transferLandTransactions[_transaction.registration_number].status = \"Validated\";\n    }\n\n\n    function getLandByOwner(address owner_id) public view onlyTransactor returns ( Land[] l1) {\n        \n        Land[] l;\n        for(uint i = 0;i < lands.length; i++){\n            if(lands[i].owner_id == owner_id)\n                l.push(lands[i]);\n        }\n        return (l);\n    }\n    \n    \n    \n}\n\n\n\n\n\n\n   \n    //........................................................\n    \n    \n    \n    \n    \n    \n    \n    \n    \n    \n\n\n\n\n    \n    \n    \n    \n    \n    //...........................................................\n",
  "sourcePath": "/home/rohit/Desktop/ZBlockchain/contracts/MetaCoin.sol",
  "compiler": {
    "name": "solc",
    "version": "0.4.24+commit.e67f0147.Emscripten.clang"
  },
  "schemaVersion": "3.0.2",
  "updatedAt": "2019-03-02T14:53:38.983Z",
  "devdoc": {
    "methods": {}
  },
  "userdoc": {
    "methods": {
      "addLandTransaction(address,string,uint256,string,string,uint256)": {
        "notice": "////"
      },
      "getAddLandTransaction(uint256)": {
        "notice": "///////////"
      },
      "getAddLandTransactionsA()": {
        "notice": "/////////"
      },
      "getAddLandTransactionsLength()": {
        "notice": "///////////////////"
      },
      "getLandA()": {
        "notice": "///////"
      },
      "getLandById(uint256)": {
        "notice": "//////////"
      },
      "getTransferLandTransaction(uint256)": {
        "notice": "///////////"
      },
      "transferLandTransaction(string,uint256,address,string,uint256,string,uint256,string)": {
        "notice": "////"
      },
      "validateAddLandTransaction(uint256)": {
        "notice": "///"
      },
      "validateTransferLandTransaction(uint256)": {
        "notice": "////////////////////"
      }
    }
  }
}