{
  "contractName": "MetaCoin",
  "abi": [
    {
      "inputs": [],
      "payable": false,
      "stateMutability": "nonpayable",
      "type": "constructor"
    },
    {
      "anonymous": false,
      "inputs": [
        {
          "indexed": true,
          "name": "_from",
          "type": "address"
        },
        {
          "indexed": true,
          "name": "_to",
          "type": "address"
        },
        {
          "indexed": false,
          "name": "_value",
          "type": "uint256"
        }
      ],
      "name": "Transfer",
      "type": "event"
    },
    {
      "constant": false,
      "inputs": [
        {
          "name": "_role",
          "type": "uint256"
        }
      ],
      "name": "requestAccess",
      "outputs": [],
      "payable": false,
      "stateMutability": "nonpayable",
      "type": "function"
    },
    {
      "constant": false,
      "inputs": [
        {
          "name": "_index",
          "type": "uint256"
        }
      ],
      "name": "approveRequest",
      "outputs": [],
      "payable": false,
      "stateMutability": "nonpayable",
      "type": "function"
    },
    {
      "constant": true,
      "inputs": [
        {
          "name": "_index",
          "type": "uint256"
        }
      ],
      "name": "getRequest",
      "outputs": [
        {
          "name": "",
          "type": "uint256"
        },
        {
          "name": "",
          "type": "address"
        },
        {
          "name": "",
          "type": "uint256"
        }
      ],
      "payable": false,
      "stateMutability": "view",
      "type": "function"
    },
    {
      "constant": true,
      "inputs": [],
      "name": "getRequestsLength",
      "outputs": [
        {
          "name": "",
          "type": "uint256"
        }
      ],
      "payable": false,
      "stateMutability": "view",
      "type": "function"
    },
    {
      "constant": false,
      "inputs": [
        {
          "name": "_newOwner",
          "type": "address"
        }
      ],
      "name": "setOwner",
      "outputs": [],
      "payable": false,
      "stateMutability": "nonpayable",
      "type": "function"
    },
    {
      "constant": false,
      "inputs": [
        {
          "name": "_validatorAddress",
          "type": "address"
        }
      ],
      "name": "setValidator",
      "outputs": [
        {
          "name": "sufficient",
          "type": "bool"
        }
      ],
      "payable": false,
      "stateMutability": "nonpayable",
      "type": "function"
    },
    {
      "constant": false,
      "inputs": [
        {
          "name": "_transactorAddress",
          "type": "address"
        }
      ],
      "name": "setTransactor",
      "outputs": [],
      "payable": false,
      "stateMutability": "nonpayable",
      "type": "function"
    },
    {
      "constant": true,
      "inputs": [
        {
          "name": "_adr",
          "type": "address"
        }
      ],
      "name": "isValidator",
      "outputs": [
        {
          "name": "",
          "type": "bool"
        }
      ],
      "payable": false,
      "stateMutability": "view",
      "type": "function"
    },
    {
      "constant": true,
      "inputs": [
        {
          "name": "_adr",
          "type": "address"
        }
      ],
      "name": "isTransactor",
      "outputs": [
        {
          "name": "",
          "type": "bool"
        }
      ],
      "payable": false,
      "stateMutability": "view",
      "type": "function"
    },
    {
      "constant": true,
      "inputs": [
        {
          "name": "_adr",
          "type": "address"
        }
      ],
      "name": "isCeo",
      "outputs": [
        {
          "name": "",
          "type": "bool"
        }
      ],
      "payable": false,
      "stateMutability": "view",
      "type": "function"
    },
    {
      "constant": false,
      "inputs": [
        {
          "name": "receiver",
          "type": "address"
        },
        {
          "name": "amount",
          "type": "uint256"
        }
      ],
      "name": "sendCoin",
      "outputs": [
        {
          "name": "sufficient",
          "type": "bool"
        }
      ],
      "payable": false,
      "stateMutability": "nonpayable",
      "type": "function"
    },
    {
      "constant": true,
      "inputs": [
        {
          "name": "addr",
          "type": "address"
        }
      ],
      "name": "getBalanceInEth",
      "outputs": [
        {
          "name": "",
          "type": "uint256"
        }
      ],
      "payable": false,
      "stateMutability": "view",
      "type": "function"
    },
    {
      "constant": true,
      "inputs": [
        {
          "name": "addr",
          "type": "address"
        }
      ],
      "name": "getBalance",
      "outputs": [
        {
          "name": "",
          "type": "uint256"
        }
      ],
      "payable": false,
      "stateMutability": "view",
      "type": "function"
    },
    {
      "constant": false,
      "inputs": [
        {
          "name": "_ownerAddress",
          "type": "address"
        },
        {
          "name": "_coordinates",
          "type": "bytes32[]"
        },
        {
          "name": "_ownerName",
          "type": "string"
        },
        {
          "name": "_location",
          "type": "bytes32"
        }
      ],
      "name": "addLandTransaction",
      "outputs": [],
      "payable": false,
      "stateMutability": "nonpayable",
      "type": "function"
    },
    {
      "constant": false,
      "inputs": [
        {
          "name": "_newLandOwner",
          "type": "address"
        },
        {
          "name": "_newLandOwnerName",
          "type": "string"
        },
        {
          "name": "_landIndex",
          "type": "uint256"
        }
      ],
      "name": "transferLandTransaction",
      "outputs": [],
      "payable": false,
      "stateMutability": "nonpayable",
      "type": "function"
    },
    {
      "constant": false,
      "inputs": [
        {
          "name": "_index",
          "type": "uint256"
        }
      ],
      "name": "validateAddLandTransaction",
      "outputs": [],
      "payable": false,
      "stateMutability": "nonpayable",
      "type": "function"
    },
    {
      "constant": false,
      "inputs": [
        {
          "name": "_index",
          "type": "uint256"
        }
      ],
      "name": "validateTransferLandTransaction",
      "outputs": [],
      "payable": false,
      "stateMutability": "nonpayable",
      "type": "function"
    },
    {
      "constant": true,
      "inputs": [
        {
          "name": "_index",
          "type": "uint256"
        }
      ],
      "name": "getAddLandTransaction",
      "outputs": [
        {
          "name": "index",
          "type": "uint256"
        },
        {
          "name": "createdBy",
          "type": "address"
        },
        {
          "name": "validators",
          "type": "address[]"
        },
        {
          "name": "ownerAddress",
          "type": "address"
        },
        {
          "name": "previousOwners",
          "type": "address[]"
        },
        {
          "name": "coordinates",
          "type": "bytes32[]"
        },
        {
          "name": "ownerName",
          "type": "string"
        },
        {
          "name": "location",
          "type": "bytes32"
        }
      ],
      "payable": false,
      "stateMutability": "view",
      "type": "function"
    },
    {
      "constant": true,
      "inputs": [
        {
          "name": "_index",
          "type": "uint256"
        }
      ],
      "name": "getTransferLandTransaction",
      "outputs": [
        {
          "name": "index",
          "type": "uint256"
        },
        {
          "name": "landIndex",
          "type": "uint256"
        },
        {
          "name": "newLandOwnerName",
          "type": "string"
        },
        {
          "name": "createdBy",
          "type": "address"
        },
        {
          "name": "newLandOwner",
          "type": "address"
        },
        {
          "name": "validators",
          "type": "address[]"
        }
      ],
      "payable": false,
      "stateMutability": "view",
      "type": "function"
    },
    {
      "constant": true,
      "inputs": [],
      "name": "getAddLandTransactionsLength",
      "outputs": [
        {
          "name": "",
          "type": "uint256"
        }
      ],
      "payable": false,
      "stateMutability": "view",
      "type": "function"
    },
    {
      "constant": true,
      "inputs": [],
      "name": "getTransferLandTransactionsLength",
      "outputs": [
        {
          "name": "",
          "type": "uint256"
        }
      ],
      "payable": false,
      "stateMutability": "view",
      "type": "function"
    },
    {
      "constant": true,
      "inputs": [],
      "name": "getLandsLength",
      "outputs": [
        {
          "name": "",
          "type": "uint256"
        }
      ],
      "payable": false,
      "stateMutability": "view",
      "type": "function"
    },
    {
      "constant": true,
      "inputs": [
        {
          "name": "_index",
          "type": "uint256"
        }
      ],
      "name": "getLand",
      "outputs": [
        {
          "name": "ownerAddress",
          "type": "address"
        },
        {
          "name": "previousOwners",
          "type": "address[]"
        },
        {
          "name": "coordinates",
          "type": "bytes32[]"
        },
        {
          "name": "ownerName",
          "type": "string"
        },
        {
          "name": "location",
          "type": "bytes32"
        }
      ],
      "payable": false,
      "stateMutability": "view",
      "type": "function"
    },
    {
      "constant": true,
      "inputs": [],
      "name": "getLandA",
      "outputs": [
        {
          "components": [
            {
              "name": "ownerAddress",
              "type": "address"
            },
            {
              "name": "previousOwners",
              "type": "address[]"
            },
            {
              "name": "coordinates",
              "type": "bytes32[]"
            },
            {
              "name": "ownerName",
              "type": "string"
            },
            {
              "name": "location",
              "type": "bytes32"
            }
          ],
          "name": "l",
          "type": "tuple[]"
        }
      ],
      "payable": false,
      "stateMutability": "view",
      "type": "function"
    }
  ],
  "bytecode": "0x6080604052600160095534801561001557600080fd5b50612710600460003273ffffffffffffffffffffffffffffffffffffffff1673ffffffffffffffffffffffffffffffffffffffff16815260200190815260200160002081905550336000806101000a81548173ffffffffffffffffffffffffffffffffffffffff021916908373ffffffffffffffffffffffffffffffffffffffff16021790555061470c806100ab6000396000f30060806040526004361061013e576000357c0100000000000000000000000000000000000000000000000000000000900463ffffffff1680631165e6ab146101435780631327d3d81461018057806313af4035146101bd578063458c1434146101e657806346de3dfb14610211578063623cb3e31461023c5780637bd703e8146102655780637e0517f4146102a25780637ec839af146102e65780637fdc2cdc1461030f578063882f81e514610338578063895fc15b1461036157806390b98a111461038a578063bd76d9b3146103c7578063c1a94ecd146103f0578063c58343ef1461042d578063c8cf47221461046c578063d00e1fa914610497578063d7d1bbdb146104c2578063dbed686c146104eb578063e9158a5614610516578063f02dd53f14610558578063f8b2cb4f14610599578063facd743b146105d6575b600080fd5b34801561014f57600080fd5b5061016a60048036036101659190810190613b09565b610613565b604051610177919061424a565b60405180910390f35b34801561018c57600080fd5b506101a760048036036101a29190810190613b09565b61066c565b6040516101b4919061424a565b60405180910390f35b3480156101c957600080fd5b506101e460048036036101df9190810190613b09565b61075f565b005b3480156101f257600080fd5b506101fb610833565b6040516102089190614325565b60405180910390f35b34801561021d57600080fd5b50610226610840565b6040516102339190614325565b60405180910390f35b34801561024857600080fd5b50610263600480360361025e9190810190613b09565b61084d565b005b34801561027157600080fd5b5061028c60048036036102879190810190613b09565b610a25565b6040516102999190614325565b60405180910390f35b3480156102ae57600080fd5b506102c960048036036102c49190810190613c68565b610adc565b6040516102dd989796959493929190614340565b60405180910390f35b3480156102f257600080fd5b5061030d60048036036103089190810190613bc5565b610f60565b005b34801561031b57600080fd5b5061033660048036036103319190810190613c68565b611226565b005b34801561034457600080fd5b5061035f600480360361035a9190810190613c68565b6112f7565b005b34801561036d57600080fd5b5061038860048036036103839190810190613b32565b611558565b005b34801561039657600080fd5b506103b160048036036103ac9190810190613c2c565b6118f2565b6040516103be919061424a565b60405180910390f35b3480156103d357600080fd5b506103ee60048036036103e99190810190613c68565b611a4e565b005b3480156103fc57600080fd5b5061041760048036036104129190810190613b09565b611caf565b604051610424919061424a565b60405180910390f35b34801561043957600080fd5b50610454600480360361044f9190810190613c68565b611d05565b604051610463939291906143da565b60405180910390f35b34801561047857600080fd5b50610481611dc4565b60405161048e9190614325565b60405180910390f35b3480156104a357600080fd5b506104ac611dd1565b6040516104b99190614325565b60405180910390f35b3480156104ce57600080fd5b506104e960048036036104e49190810190613c68565b611dde565b005b3480156104f757600080fd5b50610500612099565b60405161050d9190614228565b60405180910390f35b34801561052257600080fd5b5061053d60048036036105389190810190613c68565b612434565b60405161054f9695949392919061443a565b60405180910390f35b34801561056457600080fd5b5061057f600480360361057a9190810190613c68565b612787565b6040516105909594939291906141c0565b60405180910390f35b3480156105a557600080fd5b506105c060048036036105bb9190810190613b09565b612b34565b6040516105cd9190614325565b60405180910390f35b3480156105e257600080fd5b506105fd60048036036105f89190810190613b09565b612b7d565b60405161060a919061424a565b60405180910390f35b60008173ffffffffffffffffffffffffffffffffffffffff166000809054906101000a900473ffffffffffffffffffffffffffffffffffffffff1673ffffffffffffffffffffffffffffffffffffffff16149050919050565b60008060009054906101000a900473ffffffffffffffffffffffffffffffffffffffff1673ffffffffffffffffffffffffffffffffffffffff163373ffffffffffffffffffffffffffffffffffffffff161415156106ff576040517f08c379a00000000000000000000000000000000000000000000000000000000081526004016106f6906142e5565b60405180910390fd5b60018060008473ffffffffffffffffffffffffffffffffffffffff1673ffffffffffffffffffffffffffffffffffffffff16815260200190815260200160002060006101000a81548160ff02191690831515021790555060019050919050565b6000809054906101000a900473ffffffffffffffffffffffffffffffffffffffff1673ffffffffffffffffffffffffffffffffffffffff163373ffffffffffffffffffffffffffffffffffffffff161415156107f0576040517f08c379a00000000000000000000000000000000000000000000000000000000081526004016107e7906142e5565b60405180910390fd5b806000806101000a81548173ffffffffffffffffffffffffffffffffffffffff021916908373ffffffffffffffffffffffffffffffffffffffff16021790555050565b6000600880549050905090565b6000600780549050905090565b6000809054906101000a900473ffffffffffffffffffffffffffffffffffffffff1673ffffffffffffffffffffffffffffffffffffffff163373ffffffffffffffffffffffffffffffffffffffff161415156108de576040517f08c379a00000000000000000000000000000000000000000000000000000000081526004016108d5906142e5565b60405180910390fd5b60011515600160003373ffffffffffffffffffffffffffffffffffffffff1673ffffffffffffffffffffffffffffffffffffffff16815260200190815260200160002060009054906101000a900460ff161515148061098957506000809054906101000a900473ffffffffffffffffffffffffffffffffffffffff1673ffffffffffffffffffffffffffffffffffffffff163373ffffffffffffffffffffffffffffffffffffffff16145b15156109ca576040517f08c379a00000000000000000000000000000000000000000000000000000000081526004016109c1906142c5565b60405180910390fd5b6001600260008373ffffffffffffffffffffffffffffffffffffffff1673ffffffffffffffffffffffffffffffffffffffff16815260200190815260200160002060006101000a81548160ff02191690831515021790555050565b600073__ConvertLib____________________________6396e4ee3d610a4a84612b34565b60026040518363ffffffff167c0100000000000000000000000000000000000000000000000000000000028152600401610a85929190614411565b60206040518083038186803b158015610a9d57600080fd5b505af4158015610ab1573d6000803e3d6000fd5b505050506040513d601f19601f82011682018060405250610ad59190810190613c91565b9050919050565b6000806060600060608060606000610af26131f8565b610afa61323e565b60011515600160003373ffffffffffffffffffffffffffffffffffffffff1673ffffffffffffffffffffffffffffffffffffffff16815260200190815260200160002060009054906101000a900460ff1615151480610ba557506000809054906101000a900473ffffffffffffffffffffffffffffffffffffffff1673ffffffffffffffffffffffffffffffffffffffff163373ffffffffffffffffffffffffffffffffffffffff16145b1515610be6576040517f08c379a0000000000000000000000000000000000000000000000000000000008152600401610bdd906142c5565b60405180910390fd5b60078b815481101515610bf557fe5b906000526020600020906008020160806040519081016040529081600082015481526020016001820160009054906101000a900473ffffffffffffffffffffffffffffffffffffffff1673ffffffffffffffffffffffffffffffffffffffff1673ffffffffffffffffffffffffffffffffffffffff16815260200160028201805480602002602001604051908101604052809291908181526020018280548015610cf457602002820191906000526020600020905b8160009054906101000a900473ffffffffffffffffffffffffffffffffffffffff1673ffffffffffffffffffffffffffffffffffffffff1681526020019060010190808311610caa575b505050505081526020016003820160a060405190810160405290816000820160009054906101000a900473ffffffffffffffffffffffffffffffffffffffff1673ffffffffffffffffffffffffffffffffffffffff1673ffffffffffffffffffffffffffffffffffffffff16815260200160018201805480602002602001604051908101604052809291908181526020018280548015610de957602002820191906000526020600020905b8160009054906101000a900473ffffffffffffffffffffffffffffffffffffffff1673ffffffffffffffffffffffffffffffffffffffff1681526020019060010190808311610d9f575b5050505050815260200160028201805480602002602001604051908101604052809291908181526020018280548015610e4557602002820191906000526020600020905b81546000191681526020019060010190808311610e2d575b50505050508152602001600382018054600181600116156101000203166002900480601f016020809104026020016040519081016040528092919081815260200182805460018160011615610100020316600290048015610ee75780601f10610ebc57610100808354040283529160200191610ee7565b820191906000526020600020905b815481529060010190602001808311610eca57829003601f168201915b5050505050815260200160048201546000191660001916815250508152505091508160600151905081600001518260200151836040015183600001518460200151856040015186606001518760800151859550839350829250819150995099509950995099509950995099505050919395975091939597565b6060610f6a613287565b60011515600260003373ffffffffffffffffffffffffffffffffffffffff1673ffffffffffffffffffffffffffffffffffffffff16815260200190815260200160002060009054906101000a900460ff1615151480611019575060011515600160003373ffffffffffffffffffffffffffffffffffffffff1673ffffffffffffffffffffffffffffffffffffffff16815260200190815260200160002060009054906101000a900460ff161515145b8061107057503373ffffffffffffffffffffffffffffffffffffffff166000809054906101000a900473ffffffffffffffffffffffffffffffffffffffff1673ffffffffffffffffffffffffffffffffffffffff16145b15156110b1576040517f08c379a00000000000000000000000000000000000000000000000000000000081526004016110a890614265565b60405180910390fd5b60c06040519081016040528060088054905081526020018481526020018581526020013373ffffffffffffffffffffffffffffffffffffffff1681526020018673ffffffffffffffffffffffffffffffffffffffff16815260200183815250905060088190806001815401808255809150509060018203906000526020600020906006020160009091929091909150600082015181600001556020820151816001015560408201518160020190805190602001906111709291906132ea565b5060608201518160030160006101000a81548173ffffffffffffffffffffffffffffffffffffffff021916908373ffffffffffffffffffffffffffffffffffffffff16021790555060808201518160040160006101000a81548173ffffffffffffffffffffffffffffffffffffffff021916908373ffffffffffffffffffffffffffffffffffffffff16021790555060a082015181600501908051906020019061121b92919061336a565b505050505050505050565b61122e6133f4565b60606040519081016040528060038054905081526020018381526020013373ffffffffffffffffffffffffffffffffffffffff16815250905060038190806001815401808255809150509060018203906000526020600020906003020160009091929091909150600082015181600001556020820151816001015560408201518160020160006101000a81548173ffffffffffffffffffffffffffffffffffffffff021916908373ffffffffffffffffffffffffffffffffffffffff1602179055505050505050565b60008060011515600160003373ffffffffffffffffffffffffffffffffffffffff1673ffffffffffffffffffffffffffffffffffffffff16815260200190815260200160002060009054906101000a900460ff16151514806113a557506000809054906101000a900473ffffffffffffffffffffffffffffffffffffffff1673ffffffffffffffffffffffffffffffffffffffff163373ffffffffffffffffffffffffffffffffffffffff16145b15156113e6576040517f08c379a00000000000000000000000000000000000000000000000000000000081526004016113dd906142c5565b60405180910390fd5b6007838154811015156113f557fe5b90600052602060002090600802019150600090505b81600201805490508110156114d0573373ffffffffffffffffffffffffffffffffffffffff16826002018281548110151561144157fe5b9060005260206000200160009054906101000a900473ffffffffffffffffffffffffffffffffffffffff1673ffffffffffffffffffffffffffffffffffffffff1614156114c3576040517f08c379a00000000000000000000000000000000000000000000000000000000081526004016114ba906142a5565b60405180910390fd5b808060010191505061140a565b816002013390806001815401808255809150509060018203906000526020600020016000909192909190916101000a81548173ffffffffffffffffffffffffffffffffffffffff021916908373ffffffffffffffffffffffffffffffffffffffff16021790555050600954826002018054905014156115535761155282612bd3565b5b505050565b61156061323e565b6115686131f8565b60011515600260003373ffffffffffffffffffffffffffffffffffffffff1673ffffffffffffffffffffffffffffffffffffffff16815260200190815260200160002060009054906101000a900460ff1615151480611617575060011515600160003373ffffffffffffffffffffffffffffffffffffffff1673ffffffffffffffffffffffffffffffffffffffff16815260200190815260200160002060009054906101000a900460ff161515145b8061166e57503373ffffffffffffffffffffffffffffffffffffffff166000809054906101000a900473ffffffffffffffffffffffffffffffffffffffff1673ffffffffffffffffffffffffffffffffffffffff16145b15156116af576040517f08c379a00000000000000000000000000000000000000000000000000000000081526004016116a690614265565b60405180910390fd5b60a0604051908101604052808773ffffffffffffffffffffffffffffffffffffffff16815260200160006040519080825280602002602001820160405280156117075781602001602082028038833980820191505090505b5081526020018681526020018581526020018460001916815250915060806040519081016040528060078054905081526020013373ffffffffffffffffffffffffffffffffffffffff16815260200160006040519080825280602002602001820160405280156117865781602001602082028038833980820191505090505b508152602001838152509050600781908060018154018082558091505090600182039060005260206000209060080201600090919290919091506000820151816000015560208201518160010160006101000a81548173ffffffffffffffffffffffffffffffffffffffff021916908373ffffffffffffffffffffffffffffffffffffffff160217905550604082015181600201908051906020019061182d92919061336a565b5060608201518160030160008201518160000160006101000a81548173ffffffffffffffffffffffffffffffffffffffff021916908373ffffffffffffffffffffffffffffffffffffffff160217905550602082015181600101908051906020019061189a92919061336a565b5060408201518160020190805190602001906118b792919061342c565b5060608201518160030190805190602001906118d49291906132ea565b50608082015181600401906000191690555050505050505050505050565b600081600460003373ffffffffffffffffffffffffffffffffffffffff1673ffffffffffffffffffffffffffffffffffffffff1681526020019081526020016000205410156119445760009050611a48565b81600460003373ffffffffffffffffffffffffffffffffffffffff1673ffffffffffffffffffffffffffffffffffffffff1681526020019081526020016000206000828254039250508190555081600460008573ffffffffffffffffffffffffffffffffffffffff1673ffffffffffffffffffffffffffffffffffffffff168152602001908152602001600020600082825401925050819055508273ffffffffffffffffffffffffffffffffffffffff163373ffffffffffffffffffffffffffffffffffffffff167fddf252ad1be2c89b69c2b068fc378daa952ba7f163c4a11628f55a4df523b3ef84604051611a3b9190614325565b60405180910390a3600190505b92915050565b60008060011515600160003373ffffffffffffffffffffffffffffffffffffffff1673ffffffffffffffffffffffffffffffffffffffff16815260200190815260200160002060009054906101000a900460ff1615151480611afc57506000809054906101000a900473ffffffffffffffffffffffffffffffffffffffff1673ffffffffffffffffffffffffffffffffffffffff163373ffffffffffffffffffffffffffffffffffffffff16145b1515611b3d576040517f08c379a0000000000000000000000000000000000000000000000000000000008152600401611b34906142c5565b60405180910390fd5b600883815481101515611b4c57fe5b90600052602060002090600602019150600090505b8160050180549050811015611c27573373ffffffffffffffffffffffffffffffffffffffff168260050182815481101515611b9857fe5b9060005260206000200160009054906101000a900473ffffffffffffffffffffffffffffffffffffffff1673ffffffffffffffffffffffffffffffffffffffff161415611c1a576040517f08c379a0000000000000000000000000000000000000000000000000000000008152600401611c11906142a5565b60405180910390fd5b8080600101915050611b61565b816005013390806001815401808255809150509060018203906000526020600020016000909192909190916101000a81548173ffffffffffffffffffffffffffffffffffffffff021916908373ffffffffffffffffffffffffffffffffffffffff1602179055505060095482600501805490501415611caa57611ca982612ef4565b5b505050565b6000600260008373ffffffffffffffffffffffffffffffffffffffff1673ffffffffffffffffffffffffffffffffffffffff16815260200190815260200160002060009054906101000a900460ff169050919050565b6000806000611d126133f4565b600385815481101515611d2157fe5b90600052602060002090600302016060604051908101604052908160008201548152602001600182015481526020016002820160009054906101000a900473ffffffffffffffffffffffffffffffffffffffff1673ffffffffffffffffffffffffffffffffffffffff1673ffffffffffffffffffffffffffffffffffffffff16815250509050806000015181604001518260200151935093509350509193909250565b6000600380549050905090565b6000600680549050905090565b600060011515600160003373ffffffffffffffffffffffffffffffffffffffff1673ffffffffffffffffffffffffffffffffffffffff16815260200190815260200160002060009054906101000a900460ff1615151480611e8b57506000809054906101000a900473ffffffffffffffffffffffffffffffffffffffff1673ffffffffffffffffffffffffffffffffffffffff163373ffffffffffffffffffffffffffffffffffffffff16145b1515611ecc576040517f08c379a0000000000000000000000000000000000000000000000000000000008152600401611ec3906142c5565b60405180910390fd5b600382815481101515611edb57fe5b9060005260206000209060030201905060006001811115611ef857fe5b81600101541415611fa357611f308160020160009054906101000a900473ffffffffffffffffffffffffffffffffffffffff1661066c565b50600382815481101515611f4057fe5b906000526020600020906003020160008082016000905560018201600090556002820160006101000a81549073ffffffffffffffffffffffffffffffffffffffff021916905550506003805480919060019003611f9d919061347f565b50612095565b600180811115611faf57fe5b8160010154141561205957611fe78160020160009054906101000a900473ffffffffffffffffffffffffffffffffffffffff1661084d565b600382815481101515611ff657fe5b906000526020600020906003020160008082016000905560018201600090556002820160006101000a81549073ffffffffffffffffffffffffffffffffffffffff021916905550506003805480919060019003612053919061347f565b50612094565b6040517f08c379a000000000000000000000000000000000000000000000000000000000815260040161208b90614305565b60405180910390fd5b5b5050565b606060011515600260003373ffffffffffffffffffffffffffffffffffffffff1673ffffffffffffffffffffffffffffffffffffffff16815260200190815260200160002060009054906101000a900460ff161515148061214a575060011515600160003373ffffffffffffffffffffffffffffffffffffffff1673ffffffffffffffffffffffffffffffffffffffff16815260200190815260200160002060009054906101000a900460ff161515145b806121a157503373ffffffffffffffffffffffffffffffffffffffff166000809054906101000a900473ffffffffffffffffffffffffffffffffffffffff1673ffffffffffffffffffffffffffffffffffffffff16145b15156121e2576040517f08c379a00000000000000000000000000000000000000000000000000000000081526004016121d990614265565b60405180910390fd5b6006805480602002602001604051908101604052809291908181526020016000905b8282101561242b578382906000526020600020906005020160a060405190810160405290816000820160009054906101000a900473ffffffffffffffffffffffffffffffffffffffff1673ffffffffffffffffffffffffffffffffffffffff1673ffffffffffffffffffffffffffffffffffffffff1681526020016001820180548060200260200160405190810160405280929190818152602001828054801561230357602002820191906000526020600020905b8160009054906101000a900473ffffffffffffffffffffffffffffffffffffffff1673ffffffffffffffffffffffffffffffffffffffff16815260200190600101908083116122b9575b505050505081526020016002820180548060200260200160405190810160405280929190818152602001828054801561235f57602002820191906000526020600020905b81546000191681526020019060010190808311612347575b50505050508152602001600382018054600181600116156101000203166002900480601f0160208091040260200160405190810160405280929190818152602001828054600181600116156101000203166002900480156124015780601f106123d657610100808354040283529160200191612401565b820191906000526020600020905b8154815290600101906020018083116123e457829003601f168201915b50505050508152602001600482015460001916600019168152505081526020019060010190612204565b50505050905090565b60008060606000806060612446613287565b60011515600160003373ffffffffffffffffffffffffffffffffffffffff1673ffffffffffffffffffffffffffffffffffffffff16815260200190815260200160002060009054906101000a900460ff16151514806124f157506000809054906101000a900473ffffffffffffffffffffffffffffffffffffffff1673ffffffffffffffffffffffffffffffffffffffff163373ffffffffffffffffffffffffffffffffffffffff16145b1515612532576040517f08c379a0000000000000000000000000000000000000000000000000000000008152600401612529906142c5565b60405180910390fd5b60088881548110151561254157fe5b906000526020600020906006020160c060405190810160405290816000820154815260200160018201548152602001600282018054600181600116156101000203166002900480601f0160208091040260200160405190810160405280929190818152602001828054600181600116156101000203166002900480156126085780601f106125dd57610100808354040283529160200191612608565b820191906000526020600020905b8154815290600101906020018083116125eb57829003601f168201915b505050505081526020016003820160009054906101000a900473ffffffffffffffffffffffffffffffffffffffff1673ffffffffffffffffffffffffffffffffffffffff1673ffffffffffffffffffffffffffffffffffffffff1681526020016004820160009054906101000a900473ffffffffffffffffffffffffffffffffffffffff1673ffffffffffffffffffffffffffffffffffffffff1673ffffffffffffffffffffffffffffffffffffffff1681526020016005820180548060200260200160405190810160405280929190818152602001828054801561274257602002820191906000526020600020905b8160009054906101000a900473ffffffffffffffffffffffffffffffffffffffff1673ffffffffffffffffffffffffffffffffffffffff16815260200190600101908083116126f8575b5050505050815250509050806000015181602001518260400151836060015184608001518560a001518393508090509650965096509650965096505091939550919395565b60006060806060600061279861323e565b60011515600260003373ffffffffffffffffffffffffffffffffffffffff1673ffffffffffffffffffffffffffffffffffffffff16815260200190815260200160002060009054906101000a900460ff1615151480612847575060011515600160003373ffffffffffffffffffffffffffffffffffffffff1673ffffffffffffffffffffffffffffffffffffffff16815260200190815260200160002060009054906101000a900460ff161515145b8061289e57503373ffffffffffffffffffffffffffffffffffffffff166000809054906101000a900473ffffffffffffffffffffffffffffffffffffffff1673ffffffffffffffffffffffffffffffffffffffff16145b15156128df576040517f08c379a00000000000000000000000000000000000000000000000000000000081526004016128d690614265565b60405180910390fd5b6006878154811015156128ee57fe5b906000526020600020906005020160a060405190810160405290816000820160009054906101000a900473ffffffffffffffffffffffffffffffffffffffff1673ffffffffffffffffffffffffffffffffffffffff1673ffffffffffffffffffffffffffffffffffffffff168152602001600182018054806020026020016040519081016040528092919081815260200182805480156129e357602002820191906000526020600020905b8160009054906101000a900473ffffffffffffffffffffffffffffffffffffffff1673ffffffffffffffffffffffffffffffffffffffff1681526020019060010190808311612999575b5050505050815260200160028201805480602002602001604051908101604052809291908181526020018280548015612a3f57602002820191906000526020600020905b81546000191681526020019060010190808311612a27575b50505050508152602001600382018054600181600116156101000203166002900480601f016020809104026020016040519081016040528092919081815260200182805460018160011615610100020316600290048015612ae15780601f10612ab657610100808354040283529160200191612ae1565b820191906000526020600020905b815481529060010190602001808311612ac457829003601f168201915b505050505081526020016004820154600019166000191681525050905080600001518160200151826040015183606001518460800151839350829250819150955095509550955095505091939590929450565b6000600460008373ffffffffffffffffffffffffffffffffffffffff1673ffffffffffffffffffffffffffffffffffffffff168152602001908152602001600020549050919050565b6000600160008373ffffffffffffffffffffffffffffffffffffffff1673ffffffffffffffffffffffffffffffffffffffff16815260200190815260200160002060009054906101000a900460ff169050919050565b60011515600160003373ffffffffffffffffffffffffffffffffffffffff1673ffffffffffffffffffffffffffffffffffffffff16815260200190815260200160002060009054906101000a900460ff1615151480612c7e57506000809054906101000a900473ffffffffffffffffffffffffffffffffffffffff1673ffffffffffffffffffffffffffffffffffffffff163373ffffffffffffffffffffffffffffffffffffffff16145b1515612cbf576040517f08c379a0000000000000000000000000000000000000000000000000000000008152600401612cb6906142c5565b60405180910390fd5b600954816002018054905010151515612d0d576040517f08c379a0000000000000000000000000000000000000000000000000000000008152600401612d0490614285565b60405180910390fd5b600681600301908060018154018082558091505090600182039060005260206000209060050201600090919290919091506000820160009054906101000a900473ffffffffffffffffffffffffffffffffffffffff168160000160006101000a81548173ffffffffffffffffffffffffffffffffffffffff021916908373ffffffffffffffffffffffffffffffffffffffff1602179055506001820181600101908054612dbb9291906134b1565b506002820181600201908054612dd2929190613503565b5060038201816003019080546001816001161561010002031660029004612dfa929190613555565b50600482015481600401906000191690555050506007600160078054905003815481101515612e2557fe5b90600052602060002090600802016000808201600090556001820160006101000a81549073ffffffffffffffffffffffffffffffffffffffff0219169055600282016000612e7391906135dc565b60038201600080820160006101000a81549073ffffffffffffffffffffffffffffffffffffffff0219169055600182016000612eaf91906135dc565b600282016000612ebf91906135fd565b600382016000612ecf919061361e565b6004820160009055505050506007805480919060019003612ef09190613666565b5050565b60011515600160003373ffffffffffffffffffffffffffffffffffffffff1673ffffffffffffffffffffffffffffffffffffffff16815260200190815260200160002060009054906101000a900460ff1615151480612f9f57506000809054906101000a900473ffffffffffffffffffffffffffffffffffffffff1673ffffffffffffffffffffffffffffffffffffffff163373ffffffffffffffffffffffffffffffffffffffff16145b1515612fe0576040517f08c379a0000000000000000000000000000000000000000000000000000000008152600401612fd7906142c5565b60405180910390fd5b60095481600501805490501015151561302e576040517f08c379a000000000000000000000000000000000000000000000000000000000815260040161302590614285565b60405180910390fd5b60088054809190600190036130439190613698565b506006816001015481548110151561305757fe5b90600052602060002090600502016001016006826001015481548110151561307b57fe5b906000526020600020906005020160000160009054906101000a900473ffffffffffffffffffffffffffffffffffffffff1690806001815401808255809150509060018203906000526020600020016000909192909190916101000a81548173ffffffffffffffffffffffffffffffffffffffff021916908373ffffffffffffffffffffffffffffffffffffffff160217905550508060040160009054906101000a900473ffffffffffffffffffffffffffffffffffffffff166006826001015481548110151561314857fe5b906000526020600020906005020160000160006101000a81548173ffffffffffffffffffffffffffffffffffffffff021916908373ffffffffffffffffffffffffffffffffffffffff16021790555080600201600682600101548154811015156131ae57fe5b906000526020600020906005020160030190805460018160011615610100020316600290046131de9291906136ca565b5060088054809190600190036131f49190613698565b5050565b6101006040519081016040528060008152602001600073ffffffffffffffffffffffffffffffffffffffff16815260200160608152602001613238613751565b81525090565b60a060405190810160405280600073ffffffffffffffffffffffffffffffffffffffff168152602001606081526020016060815260200160608152602001600080191681525090565b60c060405190810160405280600081526020016000815260200160608152602001600073ffffffffffffffffffffffffffffffffffffffff168152602001600073ffffffffffffffffffffffffffffffffffffffff168152602001606081525090565b828054600181600116156101000203166002900490600052602060002090601f016020900481019282601f1061332b57805160ff1916838001178555613359565b82800160010185558215613359579182015b8281111561335857825182559160200191906001019061333d565b5b509050613366919061379a565b5090565b8280548282559060005260206000209081019282156133e3579160200282015b828111156133e25782518260006101000a81548173ffffffffffffffffffffffffffffffffffffffff021916908373ffffffffffffffffffffffffffffffffffffffff1602179055509160200191906001019061338a565b5b5090506133f091906137bf565b5090565b6060604051908101604052806000815260200160008152602001600073ffffffffffffffffffffffffffffffffffffffff1681525090565b82805482825590600052602060002090810192821561346e579160200282015b8281111561346d57825182906000191690559160200191906001019061344c565b5b50905061347b9190613802565b5090565b8154818355818111156134ac576003028160030283600052602060002091820191016134ab9190613827565b5b505050565b8280548282559060005260206000209081019282156134f25760005260206000209182015b828111156134f15782548255916001019190600101906134d6565b5b5090506134ff91906137bf565b5090565b8280548282559060005260206000209081019282156135445760005260206000209182015b82811115613543578254825591600101919060010190613528565b5b5090506135519190613802565b5090565b828054600181600116156101000203166002900490600052602060002090601f016020900481019282601f1061358e57805485556135cb565b828001600101855582156135cb57600052602060002091601f016020900482015b828111156135ca5782548255916001019190600101906135af565b5b5090506135d8919061379a565b5090565b50805460008255906000526020600020908101906135fa919061379a565b50565b508054600082559060005260206000209081019061361b9190613802565b50565b50805460018160011615610100020316600290046000825580601f106136445750613663565b601f016020900490600052602060002090810190613662919061379a565b5b50565b81548183558181111561369357600802816008028360005260206000209182019101613692919061387d565b5b505050565b8154818355818111156136c5576006028160060283600052602060002091820191016136c49190613941565b5b505050565b828054600181600116156101000203166002900490600052602060002090601f016020900481019282601f106137035780548555613740565b8280016001018555821561374057600052602060002091601f016020900482015b8281111561373f578254825591600101919060010190613724565b5b50905061374d919061379a565b5090565b60a060405190810160405280600073ffffffffffffffffffffffffffffffffffffffff168152602001606081526020016060815260200160608152602001600080191681525090565b6137bc91905b808211156137b85760008160009055506001016137a0565b5090565b90565b6137ff91905b808211156137fb57600081816101000a81549073ffffffffffffffffffffffffffffffffffffffff0219169055506001016137c5565b5090565b90565b61382491905b80821115613820576000816000905550600101613808565b5090565b90565b61387a91905b808211156138765760008082016000905560018201600090556002820160006101000a81549073ffffffffffffffffffffffffffffffffffffffff02191690555060030161382d565b5090565b90565b61393e91905b8082111561393a576000808201600090556001820160006101000a81549073ffffffffffffffffffffffffffffffffffffffff02191690556002820160006138cb91906135dc565b60038201600080820160006101000a81549073ffffffffffffffffffffffffffffffffffffffff021916905560018201600061390791906135dc565b60028201600061391791906135fd565b600382016000613927919061361e565b6004820160009055505050600801613883565b5090565b90565b6139db91905b808211156139d7576000808201600090556001820160009055600282016000613970919061361e565b6003820160006101000a81549073ffffffffffffffffffffffffffffffffffffffff02191690556004820160006101000a81549073ffffffffffffffffffffffffffffffffffffffff02191690556005820160006139ce91906135dc565b50600601613947565b5090565b90565b60006139ea8235614639565b905092915050565b600082601f8301121515613a0557600080fd5b8135613a18613a13826144d6565b6144a9565b91508181835260208401935060208101905083856020840282011115613a3d57600080fd5b60005b83811015613a6d5781613a538882613a77565b845260208401935060208301925050600181019050613a40565b5050505092915050565b6000613a838235614659565b905092915050565b600082601f8301121515613a9e57600080fd5b8135613ab1613aac826144fe565b6144a9565b91508082526020830160208301858383011115613acd57600080fd5b613ad883828461467f565b50505092915050565b6000613aed8235614663565b905092915050565b6000613b018251614663565b905092915050565b600060208284031215613b1b57600080fd5b6000613b29848285016139de565b91505092915050565b60008060008060808587031215613b4857600080fd5b6000613b56878288016139de565b945050602085013567ffffffffffffffff811115613b7357600080fd5b613b7f878288016139f2565b935050604085013567ffffffffffffffff811115613b9c57600080fd5b613ba887828801613a8b565b9250506060613bb987828801613a77565b91505092959194509250565b600080600060608486031215613bda57600080fd5b6000613be8868287016139de565b935050602084013567ffffffffffffffff811115613c0557600080fd5b613c1186828701613a8b565b9250506040613c2286828701613ae1565b9150509250925092565b60008060408385031215613c3f57600080fd5b6000613c4d858286016139de565b9250506020613c5e85828601613ae1565b9150509250929050565b600060208284031215613c7a57600080fd5b6000613c8884828501613ae1565b91505092915050565b600060208284031215613ca357600080fd5b6000613cb184828501613af5565b91505092915050565b613cc3816145f9565b82525050565b6000613cd482614576565b808452602084019350613ce683614537565b60005b82811015613d1857613cfc868351613cba565b613d05826145c5565b9150602086019550600181019050613ce9565b50849250505092915050565b6000613d2f8261456b565b808452602084019350613d418361452a565b60005b82811015613d7357613d57868351613cba565b613d60826145b8565b9150602086019550600181019050613d44565b50849250505092915050565b6000613d8a8261458c565b808452602084019350613d9c83614551565b60005b82811015613dce57613db2868351613eb2565b613dbb826145df565b9150602086019550600181019050613d9f565b50849250505092915050565b6000613de582614581565b808452602084019350613df783614544565b60005b82811015613e2957613e0d868351613eb2565b613e16826145d2565b9150602086019550600181019050613dfa565b50849250505092915050565b6000613e4082614597565b80845260208401935083602082028501613e598561455e565b60005b84811015613e92578383038852613e7483835161411e565b9250613e7f826145ec565b9150602088019750600181019050613e5c565b508196508694505050505092915050565b613eac81614619565b82525050565b613ebb81614625565b82525050565b613eca8161466d565b82525050565b6000613edb826145ad565b808452613eef81602086016020860161468e565b613ef8816146c1565b602085010191505092915050565b6000613f11826145a2565b808452613f2581602086016020860161468e565b613f2e816146c1565b602085010191505092915050565b6000602e82527f53656e6465722061646472657373206973206e6f74207265676973746572656460208301527f206173207472616e736163746f720000000000000000000000000000000000006040830152606082019050919050565b6000602b82527f5472616e73666572206c616e64206e65656473206174206c656173742074776f60208301527f2076616c696461746f72730000000000000000000000000000000000000000006040830152606082019050919050565b6000602382527f54686973206164647265737320697320616c726561647920612076616c69646160208301527f746f7200000000000000000000000000000000000000000000000000000000006040830152606082019050919050565b6000602d82527f53656e6465722061646472657373206973206e6f74207265676973746572656460208301527f2061732076616c696461746f72000000000000000000000000000000000000006040830152606082019050919050565b6000601b82527f53656e6465722061646472657373206973206e6f74206f776e657200000000006020830152604082019050919050565b6000601b82527f526f6c65206170706c69656420646f6573206e6f7420657869737400000000006020830152604082019050919050565b600060a0830160008301516141366000860182613cba565b506020830151848203602086015261414e8282613d24565b915050604083015184820360408601526141688282613dda565b915050606083015184820360608601526141828282613f06565b91505060808301516141976080860182613eb2565b508091505092915050565b6141ab8161462f565b82525050565b6141ba8161462f565b82525050565b600060a0820190506141d56000830188613cba565b81810360208301526141e78187613cc9565b905081810360408301526141fb8186613d7f565b9050818103606083015261420f8185613ed0565b905061421e6080830184613eb2565b9695505050505050565b600060208201905081810360008301526142428184613e35565b905092915050565b600060208201905061425f6000830184613ea3565b92915050565b6000602082019050818103600083015261427e81613f3c565b9050919050565b6000602082019050818103600083015261429e81613f99565b9050919050565b600060208201905081810360008301526142be81613ff6565b9050919050565b600060208201905081810360008301526142de81614053565b9050919050565b600060208201905081810360008301526142fe816140b0565b9050919050565b6000602082019050818103600083015261431e816140e7565b9050919050565b600060208201905061433a60008301846141a2565b92915050565b600061010082019050614356600083018b6141a2565b614363602083018a613cba565b81810360408301526143758189613cc9565b90506143846060830188613cba565b81810360808301526143968187613cc9565b905081810360a08301526143aa8186613d7f565b905081810360c08301526143be8185613ed0565b90506143cd60e0830184613eb2565b9998505050505050505050565b60006060820190506143ef60008301866141a2565b6143fc6020830185613cba565b61440960408301846141a2565b949350505050565b600060408201905061442660008301856141b1565b6144336020830184613ec1565b9392505050565b600060c08201905061444f60008301896141a2565b61445c60208301886141a2565b818103604083015261446e8187613ed0565b905061447d6060830186613cba565b61448a6080830185613cba565b81810360a083015261449c8184613cc9565b9050979650505050505050565b6000604051905081810181811067ffffffffffffffff821117156144cc57600080fd5b8060405250919050565b600067ffffffffffffffff8211156144ed57600080fd5b602082029050602081019050919050565b600067ffffffffffffffff82111561451557600080fd5b601f19601f8301169050602081019050919050565b6000602082019050919050565b6000602082019050919050565b6000602082019050919050565b6000602082019050919050565b6000602082019050919050565b600081519050919050565b600081519050919050565b600081519050919050565b600081519050919050565b600081519050919050565b600081519050919050565b600081519050919050565b6000602082019050919050565b6000602082019050919050565b6000602082019050919050565b6000602082019050919050565b6000602082019050919050565b600073ffffffffffffffffffffffffffffffffffffffff82169050919050565b60008115159050919050565b6000819050919050565b6000819050919050565b600073ffffffffffffffffffffffffffffffffffffffff82169050919050565b6000819050919050565b6000819050919050565b60006146788261462f565b9050919050565b82818337600083830152505050565b60005b838110156146ac578082015181840152602081019050614691565b838111156146bb576000848401525b50505050565b6000601f19601f83011690509190505600a265627a7a72305820e19edf2c09d6038f2d2c9097b841e8386f69777d5c8c8ddf7bbe37a34d9c622f6c6578706572696d656e74616cf50037",
  "source": "pragma solidity ^0.4.17;\npragma experimental ABIEncoderV2;\n\nimport \"./ConvertLib.sol\";\n\n// This is just a simple example of a coin-like contract.\n// It is not standards compatible and cannot be expected to talk to other\n// coin/token contracts. If you want to create a standards-compliant\n// token, see: https://github.com/ConsenSys/Tokens. Cheers!\n\n\n//metacoin has access control\n\ncontract MetaCoin {\n   \n   \n   \n   \n   \n   \n   //----------------------------------------\n   \n       address owner;\n    mapping(address => bool) validators;\n    mapping(address => bool) transactors;\n    RequestAccessTransaction[] requestAccessTransactions;\n\n    struct RequestAccessTransaction {\n        uint index;\n        uint roleRequested;        \n        address requesterAddress;\n    }\n\n    enum Roles {\n        VALIDATOR,\n        TRANSACTOR\n    }\n    \n    /*constructor() public {\n        owner = msg.sender;\n    }*/\n\n    modifier onlyOwner() {\n        require(msg.sender == owner, \"Sender address is not owner\");\n        _;\n    }\n\n    modifier onlyValidator() {\n        require(validators[msg.sender] == true || msg.sender == owner, \"Sender address is not registered as validator\");\n        _;\n    }\n    \n    modifier onlyTransactor() {\n        require(\n            transactors[msg.sender] == true || validators[msg.sender] == true || owner == msg.sender, \"Sender address is not registered as transactor\");\n        _;\n    }\n\n    function requestAccess(uint _role) public  {\n        RequestAccessTransaction memory txn = RequestAccessTransaction({ \n            index: requestAccessTransactions.length,\n            roleRequested: _role,\n            requesterAddress: msg.sender\n        }); \n        \n        //structure ka object txn\n        \n        requestAccessTransactions.push(txn);\n        //pushed in the list\n    }\n\n    function approveRequest(uint _index) public onlyValidator {\n        RequestAccessTransaction storage txn = requestAccessTransactions[_index];\n        if (txn.roleRequested == uint(Roles.VALIDATOR)) {\n            setValidator(txn.requesterAddress);\n            delete requestAccessTransactions[_index];\n            requestAccessTransactions.length--;\n        } else if (txn.roleRequested == uint(Roles.TRANSACTOR)) {\n            setTransactor(txn.requesterAddress);\n            delete requestAccessTransactions[_index];\n            requestAccessTransactions.length--;\n        } else {\n            revert(\"Role applied does not exist\");\n        }\n    }\n\n    function getRequest(uint _index) public view returns (\n        uint,\n        address,\n        uint\n    ) {\n        RequestAccessTransaction memory txn = requestAccessTransactions[_index];\n        return (txn.index, txn.requesterAddress, txn.roleRequested);\n    }\n\n    function getRequestsLength() public view returns (uint) {\n        return requestAccessTransactions.length;\n    }\n\n    function setOwner(address _newOwner) public onlyOwner {\n        owner = _newOwner;\n    }\n\n    function setValidator(address _validatorAddress) public onlyOwner returns(bool sufficient){\n        validators[_validatorAddress] = true;\n        \n        return true;\n    }\n    \n    function setTransactor(address _transactorAddress) public onlyOwner onlyValidator {\n        transactors[_transactorAddress] = true;\n    }\n\n    function isValidator(address _adr) public view returns (bool) {\n        return validators[_adr];\n    }\n\n    function isTransactor(address _adr) public view returns (bool) {\n        return transactors[_adr];\n    }\n\n    function isCeo(address _adr) public view returns (bool) {\n        return owner == _adr;\n    }\n\n   \n   //------------------------------------------\n    \n    \n    \n    \n    \n    \n    \n    \n    \n    \n \tmapping (address => uint) balances;\n\n\tevent Transfer(address indexed _from, address indexed _to, uint256 _value);\n\n\tfunction MetaCoin() public {\n\t\tbalances[tx.origin] = 10000;\n        owner = msg.sender;\n\t}\n\n\tfunction sendCoin(address receiver, uint amount) public returns(bool sufficient) {\n\t\tif (balances[msg.sender] < amount) return false;\n\t\tbalances[msg.sender] -= amount;\n\t\tbalances[receiver] += amount;\n\t\tTransfer(msg.sender, receiver, amount);\n\t\treturn true;\n\t}\n\n\tfunction getBalanceInEth(address addr) public view returns(uint){\n\t\treturn ConvertLib.convert(getBalance(addr),2);\n\t}\n\n\tfunction getBalance(address addr) public view returns(uint) {\n\t\treturn balances[addr];\n\t}\n\n\n\n///.................................................................,.,.,.,.,.,.....................................\n//Land registry\n\n\n  \n    \n    struct Land {\n        address ownerAddress;\n        address[] previousOwners;\n        bytes32[] coordinates;\n        string ownerName;\n        bytes32 location;\n    }\n    \n    struct AddLandTransaction {\n        uint index;\n        address createdBy;\n        address[] validators;\n        Land land;\n    }\n    \n    struct TransferLandTransaction {\n        uint index;\n        uint landIndex;\n        string newLandOwnerName;\n        address createdBy;\n        address newLandOwner;\n        address[] validators;\n    }\n    \n    mapping(address => uint[]) addressToLandIndexes;\n    Land[] lands;\n    AddLandTransaction[] addLandTransactions;\n    TransferLandTransaction[] transferLandTransactions;\n    uint requiredValidatorsLength = 1;\n    \n    function addLandTransaction(address _ownerAddress, bytes32[] memory _coordinates, string memory _ownerName, bytes32 _location) \n    public \n    onlyTransactor\n    {\n        Land memory land = Land({ \n            ownerAddress: _ownerAddress,\n            previousOwners: new address[](0),\n            coordinates: _coordinates,\n            ownerName: _ownerName,\n            location: _location\n        }); \n        \n        AddLandTransaction memory txn = AddLandTransaction({  \n            index: addLandTransactions.length,\n            createdBy: msg.sender,\n            validators: new address[](0),\n            land: land\n        });\n        \n        addLandTransactions.push(txn);\n    }\n\n    function transferLandTransaction(address _newLandOwner, string memory _newLandOwnerName, uint _landIndex) \n    public \n    onlyTransactor\n    {\n        address[] memory validators;\n        TransferLandTransaction memory txn = TransferLandTransaction({\n            index: transferLandTransactions.length,\n            landIndex: _landIndex,\n            createdBy: msg.sender,\n            newLandOwner: _newLandOwner,\n            newLandOwnerName: _newLandOwnerName,\n            validators: validators\n        });\n        transferLandTransactions.push(txn);\n    }\n\n    function validateAddLandTransaction(uint _index) public onlyValidator {\n        AddLandTransaction storage txn = addLandTransactions[_index];\n        for (uint i = 0; i < txn.validators.length; i++) {\n            if (txn.validators[i] == msg.sender) {\n                revert(\"This address is already a validator\");\n            }\n        }\n        \n        txn.validators.push(msg.sender);\n\n        if (txn.validators.length == requiredValidatorsLength) {\n            addLand(txn);\n        }\n    }   \n\n    function validateTransferLandTransaction(uint _index) public onlyValidator {\n        TransferLandTransaction storage txn = transferLandTransactions[_index];\n        for (uint i = 0; i < txn.validators.length; i++) {\n            if (txn.validators[i] == msg.sender) {\n                revert(\"This address is already a validator\");\n            }\n        }\n\n        txn.validators.push(msg.sender);\n\n        if (txn.validators.length == requiredValidatorsLength) {\n            transferLand(txn);\n        }\n    }\n\n    function getAddLandTransaction(uint _index) public view onlyValidator returns (\n        uint index,\n        address createdBy, \n        address[] memory validators,\n        address ownerAddress,\n        address[] memory previousOwners,\n        bytes32[] memory coordinates,\n        string memory ownerName,\n        bytes32 location\n    ) {\n        AddLandTransaction memory txn = addLandTransactions[_index];\n        Land memory land = txn.land;\n        return (\n        txn.index, txn.createdBy, txn.validators, land.ownerAddress, \n        land.previousOwners, land.coordinates, land.ownerName, land.location\n        );\n    }\n\n    function getTransferLandTransaction(uint _index) public view onlyValidator returns (\n        uint index,\n        uint landIndex,\n        string memory newLandOwnerName,\n        address createdBy,\n        address newLandOwner,\n        address[] memory validators\n    ) {\n        TransferLandTransaction memory txn = transferLandTransactions[_index];\n        return (txn.index, txn.landIndex, txn.newLandOwnerName, txn.createdBy, txn.newLandOwner, txn.validators);\n    }\n\n    function getAddLandTransactionsLength() public view returns (uint) {\n        return addLandTransactions.length;\n    }\n\n    function getTransferLandTransactionsLength() public view returns (uint) {\n        return transferLandTransactions.length;\n    }\n\n    function getLandsLength() public view returns (uint) {\n        return lands.length;\n    }\n\n    function getLand(uint _index) public view onlyTransactor returns (\n        address ownerAddress,\n        address[] memory previousOwners,\n        bytes32[] memory coordinates,\n        string memory ownerName,\n        bytes32 location\n    ) {\n        Land memory land = lands[_index];\n        return (land.ownerAddress, land.previousOwners, land.coordinates, (land.ownerName), land.location);\n    }\n    \n    function getLandA() public view onlyTransactor returns (\n        Land[] memory l) {\n        return (lands);\n    }\n    \n    function addLand(AddLandTransaction storage _transaction) internal onlyValidator {\n        require(_transaction.validators.length >= requiredValidatorsLength, \"Transfer land needs at least two validators\");\n        //AddLandTransaction storage lastTransaction = addLandTransactions[addLandTransactions.length - 1];\n        //lastTransaction.index = _transaction.index;   \n        //addLandTransactions[_transaction.index] = lastTransaction;\n        //addLandTransactions.length--;\n        lands.push(_transaction.land);\n        delete addLandTransactions[addLandTransactions.length - 1]; \n        addLandTransactions.length--;\n    }\n\n    function transferLand(TransferLandTransaction storage _transaction) internal onlyValidator {\n        require(_transaction.validators.length >= requiredValidatorsLength, \"Transfer land needs at least two validators\");\n        //TransferLandTransaction storage lastTransaction = transferLandTransactions[transferLandTransactions.length - 1]; \n        //lastTransaction.index = _transaction.index;\n        //transferLandTransactions[_transaction.index] = lastTransaction;\n        //delete transferLandTransactions[transferLandTransactions.length - 1];\n        transferLandTransactions.length--;\n        lands[_transaction.landIndex].previousOwners.push(lands[_transaction.landIndex].ownerAddress);\n        lands[_transaction.landIndex].ownerAddress = _transaction.newLandOwner;\n        lands[_transaction.landIndex].ownerName = _transaction.newLandOwnerName;\n        transferLandTransactions.length--;\n    }\n\n\n}\n\n\n\n\n\n\n   \n    //........................................................\n    \n    \n    \n    \n    \n    \n    \n    \n    \n    \n\n\n\n\n    \n    \n    \n    \n    \n    //...........................................................\n",
  "sourcePath": "/home/rohit/Desktop/ZBlockchain/contracts/MetaCoin.sol",
  "compiler": {
    "name": "solc",
    "version": "0.4.24+commit.e67f0147.Emscripten.clang"
  },
  "schemaVersion": "3.0.2",
  "updatedAt": "2019-03-02T06:57:01.485Z",
  "devdoc": {
    "methods": {}
  },
  "userdoc": {
    "methods": {}
  }
}