{
  "contractName": "MetaCoin",
  "abi": [
    {
      "inputs": [],
      "payable": false,
      "stateMutability": "nonpayable",
      "type": "constructor",
      "signature": "constructor"
    },
    {
      "anonymous": false,
      "inputs": [
        {
          "indexed": true,
          "name": "_from",
          "type": "address"
        },
        {
          "indexed": true,
          "name": "_to",
          "type": "address"
        },
        {
          "indexed": false,
          "name": "_value",
          "type": "uint256"
        }
      ],
      "name": "Transfer",
      "type": "event",
      "signature": "0xddf252ad1be2c89b69c2b068fc378daa952ba7f163c4a11628f55a4df523b3ef"
    },
    {
      "constant": false,
      "inputs": [
        {
          "name": "_role",
          "type": "uint256"
        }
      ],
      "name": "requestAccess",
      "outputs": [],
      "payable": false,
      "stateMutability": "nonpayable",
      "type": "function",
      "signature": "0x7fdc2cdc"
    },
    {
      "constant": false,
      "inputs": [
        {
          "name": "_index",
          "type": "uint256"
        }
      ],
      "name": "approveRequest",
      "outputs": [],
      "payable": false,
      "stateMutability": "nonpayable",
      "type": "function",
      "signature": "0xd7d1bbdb"
    },
    {
      "constant": true,
      "inputs": [
        {
          "name": "_index",
          "type": "uint256"
        }
      ],
      "name": "getRequest",
      "outputs": [
        {
          "name": "",
          "type": "uint256"
        },
        {
          "name": "",
          "type": "address"
        },
        {
          "name": "",
          "type": "uint256"
        }
      ],
      "payable": false,
      "stateMutability": "view",
      "type": "function",
      "signature": "0xc58343ef"
    },
    {
      "constant": true,
      "inputs": [],
      "name": "getRequestsLength",
      "outputs": [
        {
          "name": "",
          "type": "uint256"
        }
      ],
      "payable": false,
      "stateMutability": "view",
      "type": "function",
      "signature": "0xc8cf4722"
    },
    {
      "constant": false,
      "inputs": [
        {
          "name": "_newOwner",
          "type": "address"
        }
      ],
      "name": "setOwner",
      "outputs": [],
      "payable": false,
      "stateMutability": "nonpayable",
      "type": "function",
      "signature": "0x13af4035"
    },
    {
      "constant": false,
      "inputs": [
        {
          "name": "_validatorAddress",
          "type": "address"
        }
      ],
      "name": "setValidator",
      "outputs": [
        {
          "name": "sufficient",
          "type": "bool"
        }
      ],
      "payable": false,
      "stateMutability": "nonpayable",
      "type": "function",
      "signature": "0x1327d3d8"
    },
    {
      "constant": false,
      "inputs": [
        {
          "name": "_transactorAddress",
          "type": "address"
        }
      ],
      "name": "setTransactor",
      "outputs": [],
      "payable": false,
      "stateMutability": "nonpayable",
      "type": "function",
      "signature": "0x623cb3e3"
    },
    {
      "constant": true,
      "inputs": [
        {
          "name": "_adr",
          "type": "address"
        }
      ],
      "name": "isValidator",
      "outputs": [
        {
          "name": "",
          "type": "bool"
        }
      ],
      "payable": false,
      "stateMutability": "view",
      "type": "function",
      "signature": "0xfacd743b"
    },
    {
      "constant": true,
      "inputs": [
        {
          "name": "_adr",
          "type": "address"
        }
      ],
      "name": "isTransactor",
      "outputs": [
        {
          "name": "",
          "type": "bool"
        }
      ],
      "payable": false,
      "stateMutability": "view",
      "type": "function",
      "signature": "0xc1a94ecd"
    },
    {
      "constant": true,
      "inputs": [
        {
          "name": "_adr",
          "type": "address"
        }
      ],
      "name": "isCeo",
      "outputs": [
        {
          "name": "",
          "type": "bool"
        }
      ],
      "payable": false,
      "stateMutability": "view",
      "type": "function",
      "signature": "0x1165e6ab"
    },
    {
      "constant": false,
      "inputs": [
        {
          "name": "receiver",
          "type": "address"
        },
        {
          "name": "amount",
          "type": "uint256"
        }
      ],
      "name": "sendCoin",
      "outputs": [
        {
          "name": "sufficient",
          "type": "bool"
        }
      ],
      "payable": false,
      "stateMutability": "nonpayable",
      "type": "function",
      "signature": "0x90b98a11"
    },
    {
      "constant": true,
      "inputs": [
        {
          "name": "addr",
          "type": "address"
        }
      ],
      "name": "getBalanceInEth",
      "outputs": [
        {
          "name": "",
          "type": "uint256"
        }
      ],
      "payable": false,
      "stateMutability": "view",
      "type": "function",
      "signature": "0x7bd703e8"
    },
    {
      "constant": true,
      "inputs": [
        {
          "name": "addr",
          "type": "address"
        }
      ],
      "name": "getBalance",
      "outputs": [
        {
          "name": "",
          "type": "uint256"
        }
      ],
      "payable": false,
      "stateMutability": "view",
      "type": "function",
      "signature": "0xf8b2cb4f"
    }
  ],
  "bytecode": "0x608060405234801561001057600080fd5b50612710600460003273ffffffffffffffffffffffffffffffffffffffff1673ffffffffffffffffffffffffffffffffffffffff16815260200190815260200160002081905550336000806101000a81548173ffffffffffffffffffffffffffffffffffffffff021916908373ffffffffffffffffffffffffffffffffffffffff16021790555061129a806100a66000396000f3006080604052600436106100c5576000357c0100000000000000000000000000000000000000000000000000000000900463ffffffff1680631165e6ab146100ca5780631327d3d81461012557806313af403514610180578063623cb3e3146101c35780637bd703e8146102065780637fdc2cdc1461025d57806390b98a111461028a578063c1a94ecd146102ef578063c58343ef1461034a578063c8cf4722146103c5578063d7d1bbdb146103f0578063f8b2cb4f1461041d578063facd743b14610474575b600080fd5b3480156100d657600080fd5b5061010b600480360381019080803573ffffffffffffffffffffffffffffffffffffffff1690602001909291905050506104cf565b604051808215151515815260200191505060405180910390f35b34801561013157600080fd5b50610166600480360381019080803573ffffffffffffffffffffffffffffffffffffffff169060200190929190505050610528565b604051808215151515815260200191505060405180910390f35b34801561018c57600080fd5b506101c1600480360381019080803573ffffffffffffffffffffffffffffffffffffffff16906020019092919050505061064e565b005b3480156101cf57600080fd5b50610204600480360381019080803573ffffffffffffffffffffffffffffffffffffffff169060200190929190505050610755565b005b34801561021257600080fd5b50610247600480360381019080803573ffffffffffffffffffffffffffffffffffffffff1690602001909291905050506109b9565b6040518082815260200191505060405180910390f35b34801561026957600080fd5b5061028860048036038101908080359060200190929190505050610a79565b005b34801561029657600080fd5b506102d5600480360381019080803573ffffffffffffffffffffffffffffffffffffffff16906020019092919080359060200190929190505050610b4a565b604051808215151515815260200191505060405180910390f35b3480156102fb57600080fd5b50610330600480360381019080803573ffffffffffffffffffffffffffffffffffffffff169060200190929190505050610ca6565b604051808215151515815260200191505060405180910390f35b34801561035657600080fd5b5061037560048036038101908080359060200190929190505050610cfc565b604051808481526020018373ffffffffffffffffffffffffffffffffffffffff1673ffffffffffffffffffffffffffffffffffffffff168152602001828152602001935050505060405180910390f35b3480156103d157600080fd5b506103da610dbb565b6040518082815260200191505060405180910390f35b3480156103fc57600080fd5b5061041b60048036038101908080359060200190929190505050610dc8565b005b34801561042957600080fd5b5061045e600480360381019080803573ffffffffffffffffffffffffffffffffffffffff16906020019092919050505061110f565b6040518082815260200191505060405180910390f35b34801561048057600080fd5b506104b5600480360381019080803573ffffffffffffffffffffffffffffffffffffffff169060200190929190505050611158565b604051808215151515815260200191505060405180910390f35b60008173ffffffffffffffffffffffffffffffffffffffff166000809054906101000a900473ffffffffffffffffffffffffffffffffffffffff1673ffffffffffffffffffffffffffffffffffffffff16149050919050565b60008060009054906101000a900473ffffffffffffffffffffffffffffffffffffffff1673ffffffffffffffffffffffffffffffffffffffff163373ffffffffffffffffffffffffffffffffffffffff161415156105ee576040517f08c379a000000000000000000000000000000000000000000000000000000000815260040180806020018281038252601b8152602001807f53656e6465722061646472657373206973206e6f74206f776e6572000000000081525060200191505060405180910390fd5b60018060008473ffffffffffffffffffffffffffffffffffffffff1673ffffffffffffffffffffffffffffffffffffffff16815260200190815260200160002060006101000a81548160ff02191690831515021790555060019050919050565b6000809054906101000a900473ffffffffffffffffffffffffffffffffffffffff1673ffffffffffffffffffffffffffffffffffffffff163373ffffffffffffffffffffffffffffffffffffffff16141515610712576040517f08c379a000000000000000000000000000000000000000000000000000000000815260040180806020018281038252601b8152602001807f53656e6465722061646472657373206973206e6f74206f776e6572000000000081525060200191505060405180910390fd5b806000806101000a81548173ffffffffffffffffffffffffffffffffffffffff021916908373ffffffffffffffffffffffffffffffffffffffff16021790555050565b6000809054906101000a900473ffffffffffffffffffffffffffffffffffffffff1673ffffffffffffffffffffffffffffffffffffffff163373ffffffffffffffffffffffffffffffffffffffff16141515610819576040517f08c379a000000000000000000000000000000000000000000000000000000000815260040180806020018281038252601b8152602001807f53656e6465722061646472657373206973206e6f74206f776e6572000000000081525060200191505060405180910390fd5b60011515600160003373ffffffffffffffffffffffffffffffffffffffff1673ffffffffffffffffffffffffffffffffffffffff16815260200190815260200160002060009054906101000a900460ff16151514806108c457506000809054906101000a900473ffffffffffffffffffffffffffffffffffffffff1673ffffffffffffffffffffffffffffffffffffffff163373ffffffffffffffffffffffffffffffffffffffff16145b151561095e576040517f08c379a000000000000000000000000000000000000000000000000000000000815260040180806020018281038252602d8152602001807f53656e6465722061646472657373206973206e6f74207265676973746572656481526020017f2061732076616c696461746f720000000000000000000000000000000000000081525060400191505060405180910390fd5b6001600260008373ffffffffffffffffffffffffffffffffffffffff1673ffffffffffffffffffffffffffffffffffffffff16815260200190815260200160002060006101000a81548160ff02191690831515021790555050565b600073__ConvertLib____________________________6396e4ee3d6109de8461110f565b60026040518363ffffffff167c0100000000000000000000000000000000000000000000000000000000028152600401808381526020018281526020019250505060206040518083038186803b158015610a3757600080fd5b505af4158015610a4b573d6000803e3d6000fd5b505050506040513d6020811015610a6157600080fd5b81019080805190602001909291905050509050919050565b610a816111ae565b60606040519081016040528060038054905081526020018381526020013373ffffffffffffffffffffffffffffffffffffffff16815250905060038190806001815401808255809150509060018203906000526020600020906003020160009091929091909150600082015181600001556020820151816001015560408201518160020160006101000a81548173ffffffffffffffffffffffffffffffffffffffff021916908373ffffffffffffffffffffffffffffffffffffffff1602179055505050505050565b600081600460003373ffffffffffffffffffffffffffffffffffffffff1673ffffffffffffffffffffffffffffffffffffffff168152602001908152602001600020541015610b9c5760009050610ca0565b81600460003373ffffffffffffffffffffffffffffffffffffffff1673ffffffffffffffffffffffffffffffffffffffff1681526020019081526020016000206000828254039250508190555081600460008573ffffffffffffffffffffffffffffffffffffffff1673ffffffffffffffffffffffffffffffffffffffff168152602001908152602001600020600082825401925050819055508273ffffffffffffffffffffffffffffffffffffffff163373ffffffffffffffffffffffffffffffffffffffff167fddf252ad1be2c89b69c2b068fc378daa952ba7f163c4a11628f55a4df523b3ef846040518082815260200191505060405180910390a3600190505b92915050565b6000600260008373ffffffffffffffffffffffffffffffffffffffff1673ffffffffffffffffffffffffffffffffffffffff16815260200190815260200160002060009054906101000a900460ff169050919050565b6000806000610d096111ae565b600385815481101515610d1857fe5b90600052602060002090600302016060604051908101604052908160008201548152602001600182015481526020016002820160009054906101000a900473ffffffffffffffffffffffffffffffffffffffff1673ffffffffffffffffffffffffffffffffffffffff1673ffffffffffffffffffffffffffffffffffffffff16815250509050806000015181604001518260200151935093509350509193909250565b6000600380549050905090565b600060011515600160003373ffffffffffffffffffffffffffffffffffffffff1673ffffffffffffffffffffffffffffffffffffffff16815260200190815260200160002060009054906101000a900460ff1615151480610e7557506000809054906101000a900473ffffffffffffffffffffffffffffffffffffffff1673ffffffffffffffffffffffffffffffffffffffff163373ffffffffffffffffffffffffffffffffffffffff16145b1515610f0f576040517f08c379a000000000000000000000000000000000000000000000000000000000815260040180806020018281038252602d8152602001807f53656e6465722061646472657373206973206e6f74207265676973746572656481526020017f2061732076616c696461746f720000000000000000000000000000000000000081525060400191505060405180910390fd5b600382815481101515610f1e57fe5b9060005260206000209060030201905060006001811115610f3b57fe5b81600101541415610fe657610f738160020160009054906101000a900473ffffffffffffffffffffffffffffffffffffffff16610528565b50600382815481101515610f8357fe5b906000526020600020906003020160008082016000905560018201600090556002820160006101000a81549073ffffffffffffffffffffffffffffffffffffffff021916905550506003805480919060019003610fe091906111e6565b5061110b565b600180811115610ff257fe5b8160010154141561109c5761102a8160020160009054906101000a900473ffffffffffffffffffffffffffffffffffffffff16610755565b60038281548110151561103957fe5b906000526020600020906003020160008082016000905560018201600090556002820160006101000a81549073ffffffffffffffffffffffffffffffffffffffff02191690555050600380548091906001900361109691906111e6565b5061110a565b6040517f08c379a000000000000000000000000000000000000000000000000000000000815260040180806020018281038252601b8152602001807f526f6c65206170706c69656420646f6573206e6f74206578697374000000000081525060200191505060405180910390fd5b5b5050565b6000600460008373ffffffffffffffffffffffffffffffffffffffff1673ffffffffffffffffffffffffffffffffffffffff168152602001908152602001600020549050919050565b6000600160008373ffffffffffffffffffffffffffffffffffffffff1673ffffffffffffffffffffffffffffffffffffffff16815260200190815260200160002060009054906101000a900460ff169050919050565b6060604051908101604052806000815260200160008152602001600073ffffffffffffffffffffffffffffffffffffffff1681525090565b815481835581811115611213576003028160030283600052602060002091820191016112129190611218565b5b505050565b61126b91905b808211156112675760008082016000905560018201600090556002820160006101000a81549073ffffffffffffffffffffffffffffffffffffffff02191690555060030161121e565b5090565b905600a165627a7a723058208256a4f28b8ffb5b8ba0f456c7a197fe1233f8a4af51cb0cd1fa30a5dcf7b2280029",
  "source": "pragma solidity ^0.4.17;\n\nimport \"./ConvertLib.sol\";\n\n// This is just a simple example of a coin-like contract.\n// It is not standards compatible and cannot be expected to talk to other\n// coin/token contracts. If you want to create a standards-compliant\n// token, see: https://github.com/ConsenSys/Tokens. Cheers!\n\ncontract MetaCoin {\n   \n   \n   \n   \n   \n   \n   //----------------------------------------\n   \n       address owner;\n    mapping(address => bool) validators;\n    mapping(address => bool) transactors;\n    RequestAccessTransaction[] requestAccessTransactions;\n\n    struct RequestAccessTransaction {\n        uint index;\n        uint roleRequested;        \n        address requesterAddress;\n    }\n\n    enum Roles {\n        VALIDATOR,\n        TRANSACTOR\n    }\n    \n    /*constructor() public {\n        owner = msg.sender;\n    }*/\n\n    modifier onlyOwner() {\n        require(msg.sender == owner, \"Sender address is not owner\");\n        _;\n    }\n\n    modifier onlyValidator() {\n        require(validators[msg.sender] == true || msg.sender == owner, \"Sender address is not registered as validator\");\n        _;\n    }\n    \n    modifier onlyTransactor() {\n        require(\n            transactors[msg.sender] == true || validators[msg.sender] == true || owner == msg.sender, \"Sender address is not registered as transactor\");\n        _;\n    }\n\n    function requestAccess(uint _role) public  {\n        RequestAccessTransaction memory txn = RequestAccessTransaction({ \n            index: requestAccessTransactions.length,\n            roleRequested: _role,\n            requesterAddress: msg.sender\n        }); \n        \n        //structure ka object txn\n        \n        requestAccessTransactions.push(txn);\n        //pushed in the list\n    }\n\n    function approveRequest(uint _index) public onlyValidator {\n        RequestAccessTransaction storage txn = requestAccessTransactions[_index];\n        if (txn.roleRequested == uint(Roles.VALIDATOR)) {\n            setValidator(txn.requesterAddress);\n            delete requestAccessTransactions[_index];\n            requestAccessTransactions.length--;\n        } else if (txn.roleRequested == uint(Roles.TRANSACTOR)) {\n            setTransactor(txn.requesterAddress);\n            delete requestAccessTransactions[_index];\n            requestAccessTransactions.length--;\n        } else {\n            revert(\"Role applied does not exist\");\n        }\n    }\n\n    function getRequest(uint _index) public view returns (\n        uint,\n        address,\n        uint\n    ) {\n        RequestAccessTransaction memory txn = requestAccessTransactions[_index];\n        return (txn.index, txn.requesterAddress, txn.roleRequested);\n    }\n\n    function getRequestsLength() public view returns (uint) {\n        return requestAccessTransactions.length;\n    }\n\n    function setOwner(address _newOwner) public onlyOwner {\n        owner = _newOwner;\n    }\n\n    function setValidator(address _validatorAddress) public onlyOwner returns(bool sufficient){\n        validators[_validatorAddress] = true;\n        return true;\n    }\n    \n    function setTransactor(address _transactorAddress) public onlyOwner onlyValidator {\n        transactors[_transactorAddress] = true;\n    }\n\n    function isValidator(address _adr) public view returns (bool) {\n        return validators[_adr];\n    }\n\n    function isTransactor(address _adr) public view returns (bool) {\n        return transactors[_adr];\n    }\n\n    function isCeo(address _adr) public view returns (bool) {\n        return owner == _adr;\n    }\n\n   \n   //------------------------------------------\n    \n\tmapping (address => uint) balances;\n\n\tevent Transfer(address indexed _from, address indexed _to, uint256 _value);\n\n\tfunction MetaCoin() public {\n\t\tbalances[tx.origin] = 10000;\n        owner = msg.sender;\n\t}\n\n\tfunction sendCoin(address receiver, uint amount) public returns(bool sufficient) {\n\t\tif (balances[msg.sender] < amount) return false;\n\t\tbalances[msg.sender] -= amount;\n\t\tbalances[receiver] += amount;\n\t\tTransfer(msg.sender, receiver, amount);\n\t\treturn true;\n\t}\n\n\tfunction getBalanceInEth(address addr) public view returns(uint){\n\t\treturn ConvertLib.convert(getBalance(addr),2);\n\t}\n\n\tfunction getBalance(address addr) public view returns(uint) {\n\t\treturn balances[addr];\n\t}\n    \n}\n\n\n",
  "sourcePath": "/home/rohit/Desktop/ZBlockchain/contracts/MetaCoin.sol",
  "compiler": {
    "name": "solc",
    "version": "0.4.24+commit.e67f0147.Emscripten.clang"
  },
  "schemaVersion": "3.0.2",
  "updatedAt": "2019-02-28T15:13:31.988Z",
  "devdoc": {
    "methods": {}
  },
  "userdoc": {
    "methods": {}
  }
}